:020000040800F2
:1000000000500020650A0008010A0008070A0008DD
:100010000D0A0008130A0008190A00080000000071
:100020000000000000000000000000006154000813
:100030001F0A000800000000415600082B0A0008B3
:10004000AD0A0008AD0A0008AD0A0008AD0A0008B4
:10005000AD0A0008AD0A0008AD0A0008AD0A0008A4
:10006000AD0A0008AD0A0008AD0A0008AD0A000894
:10007000AD0A0008AD0A0008AD0A0008AD0A000884
:10008000AD0A0008AD0A0008AD0A0008AD0A000874
:10009000AD0A0008AD0A0008AD0A0008AD0A000864
:1000A000AD0A0008AD0A0008AD0A0008AD0A000854
:1000B000AD0A0008AD0A0008AD0A0008AD0A000844
:1000C000AD0A0008AD0A0008AD0A0008AD0A000834
:1000D000AD0A0008450A0008AD0A0008AD0A00088C
:1000E000AD0A0008AD0A0008AD0A000800000000D3
:1000F0000000000000000000000000000000000000
:0C01000000000000000000005FF808F1A3
:1001100010B5054C237833B9044B13B10448AFF341
:1001200000800123237010BDA40100200000000006
:10013000B05B000808B5034B1BB103490348AFF39C
:10014000008008BD00000000A8010020B05B00088E
:1001500080B500AF00F0ACFC00F06AF800F01CF9CC
:1001600000F0A2F800F0CEF800F0F6F81E4800F01B
:100170007DF902F05DFE1D4802F098FF03461C4A1F
:1001800013601C4A0221102003F02AF803461A4A81
:1001900013601A4A0221102003F022F80346184A7D
:1001A0001360184A0221102003F01AF80346164A79
:1001B0001360164A0021164802F0A0FE0346154AB5
:1001C0001360154A0021154802F098FE0346144AB0
:1001D0001360144A0021144802F090FE0346134AAB
:1001E000136002F057FEFEE7C0010020F45C000837
:1001F00088020020AC5C00087C020020C45C00087F
:1002000080020020DC5C000884020020405C0008C2
:100210003104000870020020645C000841040008FA
:1002200074020020885C0008510400087802002055
:1002300080B590B000AF07F11803282200211846BE
:1002400005F07CFC3B1D00221A605A609A60DA605F
:100250001A610223BB610123BB621023FB620023EE
:100260007B6307F11803184601F07CFC0346002B62
:1002700001D000F0F5F80F237B600023BB60002362
:10028000FB6000233B6100237B613B1D002118467E
:1002900001F0EAFE0346002B01D000F0E1F800BFB8
:1002A0004037BD4680BD000080B500AF124B134AF9
:1002B0001A60114B124A5A600F4B00229A600E4B83
:1002C0000022DA600C4B4FF480421A610A4B002284
:1002D0005A61094B00229A61074B0022DA61064BF2
:1002E00000221A62044800F0A1FF0346002B01D04F
:1002F00000F0B6F800BF80BDC001002000540040EF
:10030000A086010080B500AF114B124A1A60104B55
:100310004FF4E1325A600E4B00229A600C4B0022DF
:10032000DA600B4B00221A61094B0C225A61084B10
:1003300000229A61064B0022DA61054802F022F899
:100340000346002B01D000F08BF800BF80BD00BF3A
:10035000140200200038014080B500AF0C4B0D4A5C
:100360001A600B4B00225A60094B40229A60084BDE
:100370004022DA60064B00221A61054802F034FD83
:100380000346002B01D000F06BF800BF80BD00BF1A
:100390005C020020002C004080B588B000AF07F15F
:1003A000100300221A605A609A60DA601E4B9B6943
:1003B0001D4A43F0100393611B4B9B6903F010032C
:1003C000FB60FB68184B9B69174A43F00403936179
:1003D000154B9B6903F00403BB60BB68124B9B6920
:1003E000114A43F0080393610F4B9B6903F0080324
:1003F0007B607B6800224FF400510C4800F0FEFE49
:100400004FF400533B6101237B610023BB61022356
:10041000FB6107F110031946044800F06BFD00BFB3
:100420002037BD4680BD00BF0010024000100140D3
:1004300080B582B000AF7860012002F009FEFBE7D2
:1004400080B582B000AF7860012002F001FEFBE7CA
:1004500080B582B000AF7860012002F0F9FDFBE7C3
:1004600080B400AF72B600BFFEE7000080B582B076
:1004700000AF78604FF4806200210C4805F05EFB0D
:10048000202200210A4805F059FB0A4A7B681360C4
:1004900000F07AF82D224321074800F0AAF900F075
:1004A000C5F800BF0837BD4680BD00BFDC02002094
:1004B000DC060020FC0600200000002080B586B08D
:1004C00002AF0346FB71032200210A4805F036FB08
:1004D00000233B73FB797B73074B186807F10C0211
:1004E000642300930223782100F0E4FF00BF10375B
:1004F000BD4680BDDC020020FC06002080B586B031
:1005000002AF786039600123FB73202200211C4870
:1005100005F014FB1DE0FB7B1F2B10D9194B18684D
:100520004FF47A7300932023154A782100F0C2FF1C
:1005300020220021124805F001FB0123FB737B6898
:100540005A1C7A60FA7B19780D4B9954FB7B013366
:10055000FB733B685A1E3A60002BDCD1FB7B002BFF
:100560000AD0084B1868FB7B9BB24FF47A7200925A
:10057000034A782100F09EFF00BF1037BD4680BDC2
:10058000DC060020FC06002080B500AFAE20FFF79F
:1005900095FFD520FFF792FF8020FFF78FFFA8205F
:1005A000FFF78CFF3F20FFF789FFD320FFF786FF7F
:1005B0000020FFF783FF4020FFF780FF8D20FFF72B
:1005C0007DFF1420FFF77AFF2020FFF777FF002040
:1005D000FFF774FFA120FFF771FFC820FFF76EFF40
:1005E000DA20FFF76BFF1220FFF768FF8120FFF78B
:1005F00065FFCF20FFF762FFD920FFF75FFFF120F3
:10060000FFF75CFFDB20FFF759FF4020FFF756FFA5
:10061000A420FFF753FFA620FFF750FF2E20FFF77F
:100620004DFFAF20FFF74AFF00BF80BD80B586B009
:1006300002AF4FF48063FB60294BBB600123FB7169
:10064000284A3B4692E803001860043319703B4681
:1006500005211846FFF752FF7F20FFF72FFF2022CA
:100660000021214805F06AFA1F4B40221A7020E051
:10067000FB791F2B13D91D4B18684FF47A73009325
:100680002023194A782100F015FF20220021164866
:1006900005F054FA144B40221A700123FB71BB6819
:1006A0005A1CBA60FA7919780F4B9954FB790133C7
:1006B000FB71FB685A1EFA60002BD9D1FB79002B25
:1006C0000AD00A4B1868FB799BB24FF47A720092F9
:1006D000054A782100F0EEFE00BF1037BD4680BD10
:1006E000DC020020205C0008DC060020FC06002064
:1006F00080B483B000AF786039607B68002B22DB68
:100700007B687F2B1FDC3B68002B1CDB3B683F2B8F
:1007100019DC3B68002B00DA0733DB10D9017A685B
:100720000A440B498A5C51B23A6802F00702012080
:1007300000FA02F252B20A4351B2DA017B68134462
:10074000C9B2034AD15400BF0C37BD4680BC7047C4
:10075000DC02002080B588B000AFF860B9607A6034
:100760003B603B680733002B00DA0733DB103B614B
:1007700000237B610023BB6132E00023FB6128E0A2
:10078000FB6903F00703002B03D07B695B007B61EF
:100790000EE0BB693A6903FB02F2FB69002B00DA49
:1007A0000733DB1013441A467B6813441B787B61C4
:1007B0007B6903F08003002B08D0FA68FB69D0182E
:1007C000BA68BB6913441946FFF792FFFB6901330E
:1007D000FB61FA693B689A42D2DBBB690133BB61BA
:1007E000BA69BB6A9A42C8DB00BF00BF2037BD466A
:1007F00080BD80B586B002AFF860B9607A607B6872
:10080000C3F18003DA0F13445B101846BB68C3F1D1
:100810004003DA0F13445B101946BB6800937B68F2
:10082000FA68FFF797FF00BF1037BD4680BD000094
:1008300080B584B000AF184B9B69174A43F00103A1
:100840009361154B9B6903F00103BB60BB68124BBE
:10085000DB69114A43F08053D3610F4BDB6903F02E
:1008600080537B607B6800220F216FF0010000F055
:1008700058FA0A4B5B68FB60FB6823F0E063FB609F
:10088000FB6843F00073FB60044AFB68536000BFE1
:100890001037BD4680BD00BF00100240000001407F
:1008A00080B588B000AF786007F1100300221A60AD
:1008B0005A609A60DA607B681B68154A934223D1BC
:1008C000144B9B69134A43F008039361114B9B69D6
:1008D00003F00803FB60FB68C0233B6112237B61CC
:1008E0000323FB6107F1100319460B4800F002FBDC
:1008F000084BDB69074A43F40013D361054BDB69FE
:1009000003F40013BB60BB6800BF2037BD4680BD49
:100910000054004000100240000C014080B588B037
:1009200000AF786007F1100300221A605A609A60E5
:10093000DA607B681B68204A934239D11F4B9B6960
:100940001E4A43F4804393611C4B9B6903F480432C
:10095000FB60FB68194B9B69184A43F004039361E1
:10096000164B9B6903F00403BB60BB684FF4007334
:100970003B6102237B610323FB6107F110031946EE
:100980000F4800F0B7FA4FF480633B6100237B61AE
:100990000023BB6107F110031946094800F0AAFAC9
:1009A00000220521252000F0BCF9252000F0D5F912
:1009B00000BF2037BD4680BD003801400010024016
:1009C0000008014080B485B000AF78607B681B6888
:1009D000094A93420BD1094BDB69084A43F400638F
:1009E000D361064BDB6903F40063FB60FB6800BF67
:1009F0001437BD4680BC7047002C004000100240F8
:100A000080B400AFFEE780B400AFFEE780B400AF73
:100A1000FEE780B400AFFEE780B400AFFEE780B42D
:100A200000AF00BFBD4680BC704780B500AF00F08E
:100A300085F804F0C5F80346012B01D004F024FE2C
:100A400000BF80BD80B500AF024801F0EBFC00BFE5
:100A500080BD00BF1402002080B400AF00BFBD46BF
:100A600080BC7047FFF7F8FF0B480C490C4A002385
:100A700002E0D458C4500433C4188C42F9D3094A54
:100A8000094C002301E013600432A242FBD305F0BD
:100A90005DF8FFF75DFB704700000020A401002017
:100AA000385D0008A40100204C200020FEE7000073
:100AB00080B500AF084B1B68074A43F01003136072
:100AC000032000F023F90F2000F008F8FFF7B0FE34
:100AD0000023184680BD00BF0020024080B582B0D0
:100AE00000AF7860124B1A68124B1B7819464FF40E
:100AF0007A73B3FBF1F3B2FBF3F3184600F03BF962
:100B00000346002B01D001230EE07B680F2B0AD88F
:100B1000002279684FF0FF3000F003F9064A7B6845
:100B20001360002300E0012318460837BD4680BD4E
:100B3000940100209C0100209801002080B400AFA7
:100B4000054B1B781A46054B1B681344034A136078
:100B500000BFBD4680BC70479C01002000070020FC
:100B600080B400AF024B1B681846BD4680BC70477E
:100B70000007002080B485B000AF78607B6803F088
:100B80000703FB600C4BDB68BB60BA684FF6FF03E2
:100B90001340BB60FB681A02BB68134343F0BF639A
:100BA00043F40033BB60044ABB68D36000BF143712
:100BB000BD4680BC704700BF00ED00E080B400AFD0
:100BC000044BDB681B0A03F007031846BD4680BCD4
:100BD000704700BF00ED00E080B483B000AF034673
:100BE000FB7197F90730002B0BDBFB7903F01F0239
:100BF000064997F907305B09012000FA02F241F833
:100C0000232000BF0C37BD4680BC704700E100E0E8
:100C100080B483B000AF03463960FB7197F90730A9
:100C2000002B0ADB3B68DAB20C4997F90730120156
:100C3000D2B20B4483F800230AE03B68DAB20849D9
:100C4000FB7903F00F03043B1201D2B20B441A7676
:100C500000BF0C37BD4680BC704700BF00E100E01C
:100C600000ED00E080B489B000AFF860B9607A6050
:100C7000FB6803F00703FB61FB69C3F10703042B67
:100C800028BF0423BB61FB690433062B02D9FB692F
:100C9000033B00E000237B614FF0FF32BB6902FAA7
:100CA00003F3DA43BB681A407B699A404FF0FF3187
:100CB0007B6901FA03F3D9437B680B401343184661
:100CC0002437BD4680BC704780B582B000AF7860E5
:100CD0007B68013BB3F1807F01D301230FE00A4A17
:100CE0007B68013B53600F214FF0FF30FFF790FF0F
:100CF000054B00229A60044B07221A600023184615
:100D00000837BD4680BD00BF10E000E080B582B06E
:100D100000AF78607868FFF72DFF00BF0837BD4649
:100D200080BD80B586B000AF0346B9607A60FB73C2
:100D300000237B61FFF742FF78617A68B9687869C0
:100D4000FFF790FF024697F90F3011461846FFF75C
:100D50005FFF00BF1837BD4680BD80B582B000AFD1
:100D60000346FB7197F907301846FFF735FF00BFC0
:100D70000837BD4680BD80B582B000AF7860786826
:100D8000FFF7A2FF034618460837BD4680BD80B472
:100D900085B000AF78600023FB737B6893F8213047
:100DA000DBB2022B08D07B6804229A637B680022A6
:100DB00083F82020012320E07B681B681A687B6889
:100DC0001B6822F00E021A607B681B681A687B6839
:100DD0001B6822F001021A607B681A6C7B68DB6B6F
:100DE000012101FA02F25A607B68012283F8212076
:100DF0007B68002283F82020FB7B18461437BD4611
:100E000080BC704780B584B000AF78600023FB736E
:100E10007B6893F82130DBB2022B05D07B6804227B
:100E20009A630123FB7351E07B681B681A687B6837
:100E30001B6822F00E021A607B681B681A687B68C8
:100E40001B6822F001021A607B681B68224A9342E9
:100E500029D07B681B68214A934222D07B681B689B
:100E60001F4A93421AD07B681B681E4A934212D0D5
:100E70007B681B681C4A93420AD07B681B681B4A2C
:100E8000934202D14FF480130EE04FF080730BE0D9
:100E90004FF4803308E04FF4805305E04FF4807343
:100EA00002E0102300E00123114A53607B68012215
:100EB00083F821207B68002283F820207B685B6B0D
:100EC000002B03D07B685B6B78689847FB7B1846E8
:100ED0001037BD4680BD00BF080002401C00024024
:100EE0003000024044000240580002406C000240C2
:100EF0000000024080B48BB000AF786039600023FE
:100F00007B6200233B6269E101227B6A02FA03F300
:100F1000FB613B681B68FA691340BB61BA69FB69F6
:100F20009A4240F058813B685B689A4A93425ED08F
:100F3000984A934275D8984A934258D0964A934219
:100F40006FD8964A934252D0944A934269D8944AB1
:100F500093424CD0924A934263D8924A934246D0ED
:100F6000904A93425DD8122B2AD8122B59D801A24D
:100F700052F823F0EF0F0008C90F0008DB0F00083C
:100F80001D1000082310000823100008231000087B
:100F90002310000823100008231000082310000865
:100FA0002310000823100008231000082310000855
:100FB0002310000823100008D10F0008E50F0008D7
:100FC000794A934213D02CE03B68DB683B6229E00E
:100FD0003B68DB6804333B6224E03B68DB68083332
:100FE0003B621FE03B68DB680C333B621AE03B6806
:100FF0009B68002B02D104233B6213E03B689B6893
:10100000012B05D108233B627B68FA691A6109E06C
:1010100008233B627B68FA695A6103E000233B6264
:1010200000E000BFBB69FF2B01D87B6801E07B6853
:1010300004337B61BB69FF2B02D87B6A9B0002E013
:101040007B6A083B9B003B617B691A680F213B6907
:1010500001FA03F3DB431A40396A3B6901FA03F3EF
:101060001A437B691A603B685B6803F08053002B6E
:1010700000F0B1804D4B9B694C4A43F001039361F2
:101080004A4B9B6903F00103BB60BB68484A7B6A1B
:101090009B08023352F82330FB607B6A03F00303A2
:1010A0009B000F2202FA03F3DB43FA681340FB6054
:1010B0007B68404A934213D07B683F4A93420DD0ED
:1010C0007B683E4A934207D07B683D4A934201D1F8
:1010D000032306E0042304E0022302E0012300E0EE
:1010E00000237A6A02F0030292009340FA681343E5
:1010F000FB602F497B6A9B080233FA6841F8232082
:101100003B685B6803F48013002B06D02D4B9A6874
:101110002C49BB6913438B6006E02A4B9A68BB6974
:10112000DB43284913408B603B685B6803F4001382
:10113000002B06D0234BDA682249BB691343CB60EE
:1011400006E0204BDA68BB69DB431E491340CB60E5
:101150003B685B6803F40033002B06D0194B5A68D8
:101160001849BB6913434B6006E0164B5A68BB69CC
:10117000DB43144913404B603B685B6803F48033E6
:10118000002B21D00F4B1A680E49BB6913430B602B
:1011900021E000BF000032100000311000002210DA
:1011A0000000211000001210000011100010024079
:1011B0000000014000080140000C01400010014007
:1011C00000140140000401400B4B1A68BB69DB436B
:1011D000094913400B607B6A01337B623B681A68E4
:1011E0007B6A22FA03F3002B7FF48EAE00BF00BFB0
:1011F0002C37BD4680BC70470004014080B483B0EA
:1012000000AF78600B467B8013467B707B78002BA9
:1012100003D07A887B681A6103E07B881A047B68B4
:101220001A6100BF0C37BD4680BC704780B584B0E2
:1012300000AF78607B68002B01D101232BE17B6834
:1012400093F83D30DBB2002B06D17B68002283F897
:101250003C207868FFF724FB7B68242283F83D203C
:101260007B681B681A687B681B6822F001021A60A1
:101270007B681B681A687B681B6842F400421A602E
:101280007B681B681A687B681B6822F400421A603E
:1012900001F032F8F8607B685B68814A934207D8B6
:1012A000FB68804A934294BF01230023DBB206E02F
:1012B000FB687D4A934294BF01230023DBB2002BDD
:1012C00001D00123E7E0FB68784AA2FB03239B0CD3
:1012D000BB607B681B685B6823F03F017B681B6811
:1012E000BA680A435A607B681B681B6A23F03F0197
:1012F0007B685B686A4A934202D8BB68013309E0A5
:10130000BB684FF4967202FB03F3694AA2FB032306
:101310009B0901337A6812680B4313627B681B6870
:10132000DB6923F44F4222F0FF027B685B685C4973
:101330008B4219D8FB68591E7B685B685B00B1FB68
:10134000F3F3591C40F6FC730B40002B0AD0FB68EA
:10135000591E7B685B685B00B1FBF3F30133C3F399
:101360000B0351E004234FE07B689B68002B11D1F5
:10137000FB68581E7B6859680B465B000B44B0FB4A
:10138000F3F30133C3F30B03002B0CBF0123002342
:10139000DBB212E0FB68581E7B6859680B469B0065
:1013A0000B4499000B44B0FBF3F30133C3F30B037D
:1013B000002B0CBF01230023DBB2002B01D0012343
:1013C00022E07B689B68002B0ED1FB68581E7B686F
:1013D00059680B465B000B44B0FBF3F30133C3F3D6
:1013E0000B0343F400430FE0FB68581E7B68596809
:1013F0000B469B000B4499000B44B0FBF3F3013305
:10140000C3F30B0343F44043796809681343CB618A
:101410007B681B681B6823F0C0017B68DA697B6806
:101420001B6A1A437B681B680A431A607B681B6847
:101430009B6823F4034323F0FF037A6811697A68F9
:10144000D26811437A6812680B4393607B681B680B
:10145000DB6823F0FF017B685A697B689B691A434C
:101460007B681B680A43DA607B681B681A687B68C4
:101470001B6842F001021A607B6800221A647B68D4
:10148000202283F83D207B6800221A637B680022BB
:1014900083F83E20002318461037BD4680BD00BFAC
:1014A000A08601007F841E00FF083D0083DE1B43F1
:1014B000D34D621080B588B002AFF8607A601A46EA
:1014C0000B467B8113463B81FFF74AFB7861FB6843
:1014D00093F83D30DBB2202B40F0E0807B69009335
:1014E000192301227049F86800F064F90346002BC3
:1014F00001D00223D3E0FB6893F83C30012B01D1EB
:101500000223CCE0FB68012283F83C20FB681B68C7
:101510001B6803F00103012B07D0FB681B681A68E6
:10152000FB681B6842F001021A60FB681B681A68BE
:10153000FB681B6822F400621A60FB68212283F8B2
:101540003D20FB68102283F83E20FB6800221A64CD
:10155000FB687A685A62FB683A895A85FB685B8D3A
:101560009AB2FB681A85FB68504ADA6279897B690E
:101570003A6AF86800F09CF80346002B01D001237A
:101580008DE000233B61FB681B685B693B61FB6886
:101590001B689B693B613B6966E07A69396AF86858
:1015A00000F022FA0346002B0DD0FB681B6C042BC5
:1015B00007D1FB681B681A68FB681B6842F400725D
:1015C0001A6001236BE0FB685B6A1A78FB681B6892
:1015D0001A61FB685B6A5A1CFB685A62FB685B8D88
:1015E0009BB2013B9AB2FB685A85FB681B8D013B9D
:1015F0009AB2FB681A85FB681B685B6903F00403F9
:10160000042B1BD1FB681B8D002B17D0FB685B6A7A
:101610001A78FB681B681A61FB685B6A5A1CFB68D6
:101620005A62FB685B8D9BB2013B9AB2FB685A859C
:10163000FB681B8D013B9AB2FB681A857A69396A8F
:10164000F86800F019FA0346002B0DD0FB681B6CFC
:10165000042B07D1FB681B681A68FB681B6842F4FF
:1016600000721A6001231AE0FB681B8D002B94D1D5
:10167000FB681B681A68FB681B6842F400721A60FA
:10168000FB68202283F83D20FB68002283F83E207F
:10169000FB68002283F83C20002300E00223184668
:1016A0001837BD4680BD00BF020010000000FFFFDC
:1016B00080B588B002AFF8607A603B600B467B81F2
:1016C000FB68DB6A7B617B69082B06D07B69012B99
:1016D00003D07B6913F5803F08D1FB681B681A684B
:1016E000FB681B6842F480721A600BE0FB681B6B9E
:1016F000122B07D1FB681B681A68FB681B6842F451
:1017000080721A603B6800937B6800224FF00111E1
:10171000F86800F04FF80346002B0DD0FB681B68FB
:101720001B6803F48073B3F5807F03D1FB684FF42B
:1017300000721A64032335E0FB681B69B3F5804F20
:1017400008D17B89DBB21A46FB681B6802F0FE02F7
:101750001A611BE07B89DB11DBB203F00603DBB20D
:1017600063F00F03DAB2FB681B681A613B687A68A2
:101770000E49F86800F098F80346002B01D00123C9
:1017800010E07B89DAB2FB681B681A613B687A68F3
:101790000749F86800F088F80346002B01D00123C0
:1017A00000E0002318461837BD4680BD0800010040
:1017B0000200010080B584B000AFF860B9603B6002
:1017C0001346FB7148E03B68B3F1FF3F44D0FFF79D
:1017D000C7F90246BB69D31A3A689A4202D33B68FA
:1017E000002B39D1BB681B0CDBB2012B0DD1FB6880
:1017F0001B685B69DA43BB6813409BB2002B0CBFCC
:1018000001230023DBB21A460CE0FB681B689B69CE
:10181000DA43BB6813409BB2002B0CBF01230023AB
:10182000DBB21A46FB799A4216D1FB6800221A6392
:10183000FB68202283F83D20FB68002283F83E20CD
:10184000FB681B6C43F02002FB681A64FB680022F3
:1018500083F83C20012323E0BB681B0CDBB2012B87
:101860000DD1FB681B685B69DA43BB6813409BB210
:10187000002B0CBF01230023DBB21A460CE0FB68EF
:101880001B689B69DA43BB6813409BB2002B0CBFFB
:1018900001230023DBB21A46FB799A4293D000233E
:1018A00018461037BD4680BD80B584B000AFF860E3
:1018B000B9607A603B6071E0FB681B685B6903F4A8
:1018C0008063B3F5806F23D1FB681B681A68FB68DF
:1018D0001B6842F400721A60FB681B686FF4806238
:1018E0005A61FB6800221A63FB68202283F83D20BE
:1018F000FB68002283F83E20FB681B6C43F0040267
:10190000FB681A64FB68002283F83C20012367E02F
:101910007B68B3F1FF3F41D0FFF722F902463B68F5
:10192000D31A7A689A4202D37B68002B36D1BB68FF
:101930001B0CDBB2012B0CD1FB681B685B69DA4323
:10194000BB6813409BB2002B14BF01230023DBB202
:101950000BE0FB681B689B69DA43BB6813409BB2D2
:10196000002B14BF01230023DBB2002B16D0FB6831
:1019700000221A63FB68202283F83D20FB680022C6
:1019800083F83E20FB681B6C43F02002FB681A645E
:10199000FB68002283F83C20012321E0BB681B0C7C
:1019A000DBB2012B0CD1FB681B685B69DA43BB68B7
:1019B00013409BB2002B14BF01230023DBB20BE0CA
:1019C000FB681B689B69DA43BB6813409BB2002B22
:1019D00014BF01230023DBB2002B7FF46DAF002383
:1019E00018461037BD4680BD80B584B000AFF860A2
:1019F000B9607A6034E0F86800F086F80346002B9E
:101A000001D0012334E0BB68B3F1FF3F28D0FFF7DA
:101A1000A7F802467B68D31ABA689A4202D3BB6819
:101A2000002B1DD1FB681B685B6903F08003802BD2
:101A300016D0FB6800221A63FB68202283F83D2041
:101A4000FB68002283F83E20FB681B6C43F02002F9
:101A5000FB681A64FB68002283F83C20012307E03E
:101A6000FB681B685B6903F08003802BC3D10023F4
:101A700018461037BD4680BD80B584B000AFF86011
:101A8000B9607A6034E0F86800F03EF80346002B55
:101A900001D0012334E0BB68B3F1FF3F28D0FFF74A
:101AA0005FF802467B68D31ABA689A4202D3BB68D1
:101AB000002B1DD1FB681B685B6903F00403042B3A
:101AC00016D0FB6800221A63FB68202283F83D20B1
:101AD000FB68002283F83E20FB681B6C43F0200269
:101AE000FB681A64FB68002283F83C20012307E0AE
:101AF000FB681B685B6903F00403042BC3D100235C
:101B000018461037BD4680BD80B483B000AF786002
:101B10007B681B685B6903F48063B3F5806F1BD13E
:101B20007B681B686FF480625A617B6800221A63CD
:101B30007B68202283F83D207B68002283F83E20CA
:101B40007B681B6C43F004027B681A647B6800228C
:101B500083F83C20012300E0002318460C37BD46E3
:101B600080BC704780B586B000AF78607B68002B82
:101B700001D1012372E27B681B6803F00103002B93
:101B800000F08780924B5B6803F00C03042B0CD0B1
:101B90008F4B5B6803F00C03082B12D18C4B5B68F6
:101BA00003F48033B3F5803F0BD1894B1B6803F4FA
:101BB0000033002B6CD07B685B68002B68D101235D
:101BC0004CE27B685B68B3F5803F06D1804B1B68B5
:101BD0007F4A43F4803313602EE07B685B68002B00
:101BE0000CD17B4B1B687A4A23F480331360784B0B
:101BF0001B68774A23F4802313601DE07B685B68D1
:101C0000B3F5A02F0CD1724B1B68714A43F48023AB
:101C100013606F4B1B686E4A43F4803313600BE014
:101C20006B4B1B686A4A23F480331360684B1B6854
:101C3000674A23F4802313607B685B68002B13D012
:101C4000FEF78EFF386108E0FEF78AFF02463B6927
:101C5000D31A642B01D9032300E25D4B1B6803F404
:101C60000033002BF0D014E0FEF77AFF386108E073
:101C7000FEF776FF02463B69D31A642B01D9032392
:101C8000ECE1534B1B6803F40033002BF0D100E070
:101C900000BF7B681B6803F00203002B63D04C4B32
:101CA0005B6803F00C03002B0BD0494B5B6803F01F
:101CB0000C03082B1CD1464B5B6803F48033002BCC
:101CC00016D1434B1B6803F00203002B05D07B6841
:101CD0001B69012B01D00123C0E13D4B1B6823F0A0
:101CE000F8027B685B69DB00394913430B603AE01B
:101CF0007B681B69002B20D0364B01221A60FEF74F
:101D00002FFF386108E0FEF72BFF02463B69D31A2C
:101D1000022B01D90323A1E12D4B1B6803F0020321
:101D2000002BF0D02A4B1B6823F0F8027B685B691C
:101D3000DB00274913430B6015E0264B00221A6095
:101D4000FEF70EFF386108E0FEF70AFF02463B6926
:101D5000D31A022B01D9032380E11D4B1B6803F02A
:101D60000203002BF0D17B681B6803F00803002BF3
:101D70003AD07B689B69002B19D0174B01221A605F
:101D8000FEF7EEFE386108E0FEF7EAFE02463B6928
:101D9000D31A022B01D9032360E10D4B5B6A03F0D8
:101DA0000203002BF0D0012000F0CEFA1CE00A4B19
:101DB00000221A60FEF7D4FE38610FE0FEF7D0FE75
:101DC00002463B69D31A022B08D9032346E100BF20
:101DD000001002400000424280044242924B5B6A83
:101DE00003F00203002BE9D17B681B6803F00403B6
:101DF000002B00F0A6800023FB758B4BDB6903F002
:101E00008053002B0DD1884BDB69874A43F0805308
:101E1000D361854BDB6903F08053BB60BB68012352
:101E2000FB75824B1B6803F48073002B18D17F4B2A
:101E30001B687E4A43F480731360FEF791FE38619D
:101E400008E0FEF78DFE02463B69D31A642B01D9E8
:101E5000032303E1754B1B6803F48073002BF0D060
:101E60007B68DB68012B06D16F4B1B6A6E4A43F01F
:101E7000010313622DE07B68DB68002B0CD16A4BF9
:101E80001B6A694A23F001031362674B1B6A664AA7
:101E900023F0040313621CE07B68DB68052B0CD184
:101EA000614B1B6A604A43F0040313625E4B1B6A7A
:101EB0005D4A43F0010313620BE05B4B1B6A5A4A15
:101EC00023F001031362584B1B6A574A23F00403A3
:101ED00013627B68DB68002B15D0FEF741FE38618A
:101EE0000AE0FEF73DFE02463B69D31A41F2883212
:101EF000934201D90323B1E04B4B1B6A03F0020369
:101F0000002BEED014E0FEF72BFE38610AE0FEF75E
:101F100027FE02463B69D31A41F28832934201D927
:101F200003239BE0404B1B6A03F00203002BEED11E
:101F3000FB7D012B05D13C4BDB693B4A23F08053F1
:101F4000D3617B68DB69002B00F08780364B5B68D0
:101F500003F00C03082B61D07B68DB69022B46D1B0
:101F6000334B00221A60FEF7FBFD386108E0FEF7F4
:101F7000F7FD02463B69D31A022B01D903236DE01A
:101F8000294B1B6803F00073002BF0D17B681B6AA0
:101F9000B3F5803F08D1244B5B6823F400327B68A3
:101FA0009B68214913434B601F4B5B6823F47412F9
:101FB0007B68196A7B685B6A0B431B4913434B6060
:101FC0001B4B01221A60FEF7CBFD386108E0FEF7DB
:101FD000C7FD02463B69D31A022B01D903233DE01A
:101FE000114B1B6803F00073002BF0D035E0104B51
:101FF00000221A60FEF7B4FD386108E0FEF7B0FD7C
:1020000002463B69D31A022B01D9032326E0064B73
:102010001B6803F00073002BF0D11EE07B68DB69C6
:10202000012B07D1012319E000100240007000408D
:10203000600042420B4B5B68FB60FB6803F480323C
:102040007B681B6A9A4206D1FB6803F470127B68B6
:102050005B6A9A4201D0012300E00023184618373A
:10206000BD4680BD0010024080B584B000AF7860EE
:1020700039607B68002B01D10123D0E06A4B1B68DB
:1020800003F007033A689A4210D9674B1B6823F0A4
:10209000070265493B6813430B60634B1B6803F001
:1020A00007033A689A4201D00123B8E07B681B68B5
:1020B00003F00203002B20D07B681B6803F00403AD
:1020C000002B05D0594B5B68584A43F4E0635360DA
:1020D0007B681B6803F00803002B05D0534B5B683B
:1020E000524A43F460535360504B5B6823F0F00254
:1020F0007B689B684D4913434B607B681B6803F00A
:102100000103002B40D07B685B68012B07D1474B54
:102110001B6803F40033002B15D101237FE07B689B
:102120005B68022B07D1414B1B6803F00073002B47
:1021300009D1012373E03D4B1B6803F00203002B20
:1021400001D101236BE0394B5B6823F003027B680C
:102150005B68364913434B60FEF702FDF8600AE006
:10216000FEF7FEFC0246FB68D31A41F28832934226
:1021700001D9032353E02D4B5B6803F00C027B680D
:102180005B689B009A42EBD1274B1B6803F0070367
:102190003A689A4210D2244B1B6823F00702224966
:1021A0003B6813430B60204B1B6803F007033A683E
:1021B0009A4201D0012332E07B681B6803F00403DC
:1021C000002B08D0194B5B6823F4E0627B68DB6866
:1021D000164913434B607B681B6803F00803002B10
:1021E00009D0124B5B6823F460527B681B69DB00EB
:1021F0000E4913434B6000F021F802460B4B5B681D
:102200001B0903F00F030A49CB5C22FA03F3094AC6
:102210001360094B1B681846FEF760FC0023184644
:102220001037BD4680BD00BF0020024000100240B4
:10223000045D0008940100209801002080B487B05C
:1022400000AF0023FB600023BB6000237B61002301
:102250007B6000233B611E4B5B68FB60FB6803F007
:102260000C03042B02D0082B03D027E0194B3B6151
:1022700027E0FB689B0C03F00F03174AD35C7B60DD
:10228000FB6803F48033002B10D0114B5B685B0CB0
:1022900003F00103114AD35CBB607B680D4A03FB6A
:1022A00002F2BB68B2FBF3F37B6104E07B680C4A8B
:1022B00002FB03F37B617B693B6102E0054B3B6101
:1022C00000BF3B6918461C37BD4680BC704700BF45
:1022D0000010024000127A001C5D00082C5D00080E
:1022E00000093D0080B400AF024B1B681846BD4694
:1022F00080BC70479401002080B500AFFFF7F2FF6B
:102300000246054B5B681B0A03F007030349CB5CDD
:1023100022FA03F3184680BD00100240145D000845
:1023200080B500AFFFF7DEFF0246054B5B68DB0AB6
:1023300003F007030349CB5C22FA03F3184680BD80
:1023400000100240145D000880B485B000AF7860D2
:102350000A4B1B680A4AA2FB03235B0A7A6802FB4A
:1023600003F3FB6000BFFB685A1EFA60002BF9D133
:1023700000BF00BF1437BD4680BC704794010020E9
:10238000D34D621080B582B000AF78607B68002BBF
:1023900001D1012342E07B6893F84130DBB2002B8E
:1023A00006D17B68002283F840207868FEF7B6FAF1
:1023B0007B68242283F841207B681B68DA687B688D
:1023C0001B6822F40052DA60786800F07FFC7B68BA
:1023D0001B681A697B681B6822F490421A617B684B
:1023E0001B685A697B681B6822F02A025A617B6865
:1023F0001B68DA687B681B6842F40052DA607B680D
:1024000000225A647B68202283F841207B682022C6
:1024100083F842207B6800225A630023184608375D
:10242000BD4680BD80B5BAB000AF78607B681B68E0
:102430001B68C7F8E4307B681B68DB68C7F8E030CE
:102440007B681B685B69C7F8DC300023C7F8D830AD
:102450000023C7F8D430D7F8E43003F00F03C7F8EF
:10246000D830D7F8D830002B0FD1D7F8E43003F0AC
:102470002003002B09D0D7F8E03003F02003002B15
:1024800003D0786800F063FB5BE2D7F8D830002B0C
:1024900000F0DE80D7F8DC3003F00103002B06D11A
:1024A000D7F8E03003F49073002B00F0D180D7F818
:1024B000E43003F00103002B0BD0D7F8E03003F435
:1024C0008073002B05D07B685B6C43F001027B6856
:1024D0005A64D7F8E43003F00403002B0BD0D7F88C
:1024E000DC3003F00103002B05D07B685B6C43F00C
:1024F00002027B685A64D7F8E43003F00203002B31
:102500000BD0D7F8DC3003F00103002B05D07B683B
:102510005B6C43F004027B685A64D7F8E43003F044
:102520000803002B11D0D7F8E03003F02003002B74
:1025300005D1D7F8DC3003F00103002B05D07B6810
:102540005B6C43F008027B685A647B685B6C002B11
:1025500000F0F281D7F8E43003F02003002B08D01C
:10256000D7F8E03003F02003002B02D0786800F0A9
:10257000EEFA7B681B685B6903F04003002B14BF15
:1025800001230023DBB2C7F8D4307B685B6C03F017
:102590000803002B03D1D7F8D430002B4FD0786834
:1025A00000F0F8F97B681B685B6903F04003002BBF
:1025B00041D07B681B681433C7F89C30D7F89C3037
:1025C00053E8003FC7F89830D7F8983023F040031D
:1025D000C7F8D0307B681B681433D7F8D020C7F811
:1025E000A820C7F8A430D7F8A410D7F8A82041E84D
:1025F0000023C7F8A030D7F8A030002BD9D17B68D2
:10260000DB6B002B13D07B68DB6B7E4A5A637B68E5
:10261000DB6B1846FEF7F6FB0346002B16D07B68F3
:10262000DB6B5B6B7A68D26B104698470EE078687C
:1026300000F09CF90AE0786800F098F906E0786804
:1026400000F094F97B6800225A6475E100BF73E1E1
:102650007B681B6B012B40F04F81D7F8E43003F00F
:102660001003002B00F04881D7F8E03003F010038E
:10267000002B00F041810023BB607B681B681B6856
:10268000BB607B681B685B68BB60BB687B681B6862
:102690005B6903F04003002B00F0B6807B68DB6BC6
:1026A0001B685B68A7F8BE30B7F8BE30002B00F09F
:1026B00045817B689B8DB7F8BE209A4280F03E81B1
:1026C0007B68B7F8BE20DA857B68DB6B9B69202BC3
:1026D00000F088807B681B680C33C7F88830D7F817
:1026E000883053E8003FC7F88430D7F8843023F4AB
:1026F0008073C7F8B8307B681B680C33D7F8B820F4
:10270000C7F89420C7F89030D7F89010D7F89420E5
:1027100041E80023C7F88C30D7F88C30002BD9D192
:102720007B681B6814337B677B6F53E8003F3B6714
:102730003B6F23F00103C7F8B4307B681B68143388
:10274000D7F8B420C7F88020FB67F96FD7F880204E
:1027500041E80023BB67BB6F002BE1D17B681B689E
:1027600014333B663B6E53E8003FFB65FB6D23F083
:102770004003C7F8B0307B681B681433D7F8B0202B
:10278000FA66BB66B96EFA6E41E800237B667B6E23
:10279000002BE3D17B68202283F842207B68002253
:1027A0001A637B681B680C33FB64FB6C53E8003FC7
:1027B000BB64BB6C23F01003C7F8AC307B681B68AC
:1027C0000C33D7F8AC20BA657B65796DBA6D41E8FA
:1027D00000233B653B6D002BE3D17B68DB6B184628
:1027E000FEF7D5FA7B6802225A637B689A8D7B6874
:1027F000DB8D9BB2D31A9BB21946786800F0BFF804
:102800009CE000BF592A00087B689A8D7B68DB8DAD
:102810009BB2D31AA7F8CE307B68DB8D9BB2002B1E
:1028200000F08E80B7F8CE30002B00F089807B68F6
:102830001B680C33BB63BB6B53E8003F7B637B6B54
:1028400023F49073C7F8C8307B681B680C33D7F843
:10285000C8207A643B64396C7A6C41E80023FB63DE
:10286000FB6B002BE3D17B681B6814337B627B6AB4
:1028700053E8003F3B623B6A23F00103C7F8C430D2
:102880007B681B681433D7F8C4203A63FB62F96A8B
:102890003A6B41E80023BB62BB6A002BE3D17B6843
:1028A000202283F842207B6800221A637B681B6821
:1028B0000C333B613B6953E8003FFB60FB6823F04E
:1028C0001003C7F8C0307B681B680C33D7F8C020F2
:1028D000FA61BB61B969FA6941E800237B617B69F0
:1028E000002BE3D17B6802225A63B7F8CE30194639
:1028F000786800F044F823E0D7F8E43003F0800370
:10290000002B09D0D7F8E03003F08003002B03D070
:10291000786800F0B5F814E0D7F8E43003F040032D
:10292000002B0ED0D7F8E03003F04003002B08D086
:10293000786800F0F4F804E000BF02E000BF00E0B7
:1029400000BFE837BD4680BD80B483B000AF78607B
:1029500000BF0C37BD4680BC704780B483B000AF69
:10296000786000BF0C37BD4680BC704780B483B030
:1029700000AF786000BF0C37BD4680BC704780B4A4
:1029800083B000AF78600B467B8000BF0C37BD463C
:1029900080BC704780B495B000AF78607B681B68DE
:1029A0000C337B637B6B53E8003F3B633B6B23F44F
:1029B0009073FB647B681B680C33FA6C3A64FB63AE
:1029C000F96B3A6C41E80023BB63BB6B002BE5D18C
:1029D0007B681B6814333B623B6A53E8003FFB6132
:1029E000FB6923F00103BB647B681B681433BA6C7A
:1029F000FA62BB62B96AFA6A41E800237B627B6AC9
:102A0000002BE5D17B681B6B012B19D17B681B6800
:102A10000C33FB60FB6853E8003FBB60BB6823F0EE
:102A200010037B647B681B680C337A6CBA617B6132
:102A30007969BA6941E800233B613B69002BE5D124
:102A40007B68202283F842207B6800221A6300BF43
:102A50005437BD4680BC704780B584B000AF786005
:102A60007B685B6AFB60FB680022DA85FB680022FA
:102A7000DA84F868FFF77AFF00BF1037BD4680BDE3
:102A800080B485B000AF78607B6893F84130DBB2EA
:102A9000212B3ED17B689B68B3F5805F14D17B68A6
:102AA0001B69002B10D17B681B6AFB60FB681B88CD
:102AB0001A467B681B68C2F308025A607B681B6A6F
:102AC0009A1C7B681A6208E07B681B6A591C7A684A
:102AD00011621A787B681B685A607B68DB8C9BB23A
:102AE000013B9BB27A681946D184002B0FD17B68D9
:102AF0001B68DA687B681B6822F08002DA607B68FA
:102B00001B68DA687B681B6842F04002DA600023C9
:102B100000E0022318461437BD4680BC704780B5DC
:102B200082B000AF78607B681B68DA687B681B68DE
:102B300022F04002DA607B68202283F84120786826
:102B4000FFF702FF002318460837BD4680BD80B559
:102B50008CB000AF78607B6893F84230DBB2222BF8
:102B600040F0AE807B689B68B3F5805F17D17B68CF
:102B70001B69002B13D10023FB627B689B6ABB623D
:102B80007B681B685B689BB2C3F308039AB2BB6A9D
:102B90001A807B689B6A9A1C7B689A6226E07B6835
:102BA0009B6AFB620023BB627B689B68B3F5805F16
:102BB00007D07B689B68002B0AD17B681B69002BC0
:102BC00006D17B681B685B68DAB2FB6A1A7008E0A2
:102BD0007B681B685B68DBB203F07F03DAB2FB6AD9
:102BE0001A707B689B6A5A1C7B689A627B68DB8DD3
:102BF0009BB2013B9BB27A681946D185002B5DD10F
:102C00007B681B68DA687B681B6822F02002DA6048
:102C10007B681B68DA687B681B6822F48072DA6064
:102C20007B681B685A697B681B6822F001025A6145
:102C30007B68202283F842207B6800225A637B68ED
:102C40001B6B012B35D17B6800221A637B681B68E4
:102C50000C337B617B6953E8003F3B613B6923F0A8
:102C600010037B627B681B680C337A6A3A62FB61F3
:102C7000F9693A6A41E80023BB61BB69002BE5D1E1
:102C80007B681B681B6803F01003102B0AD100231C
:102C9000FB607B681B681B68FB607B681B685B686C
:102CA000FB60FB687B689B8D19467868FFF767FEC1
:102CB00002E07868FFF751FE002302E0002300E005
:102CC000022318463037BD4680BD000080B584B071
:102CD00000AF78607B681B681B6923F440517B68F8
:102CE000DA687B681B680A431A617B689A687B68AC
:102CF0001B691A437B685B691343BB607B681B6875
:102D0000DB6823F4B05323F00C037A681268B968C7
:102D10000B43D3607B681B685B6923F440717B685D
:102D20009A697B681B680A435A617B681B682C4A56
:102D3000934203D1FFF7F4FAF86002E0FFF7DCFA00
:102D4000F860FA6813469B0013449A001A447B68A3
:102D50005B689B00B2FBF3F3224AA2FB03235B09EF
:102D60001901FA6813469B0013449A001A447B68C1
:102D70005B689B00B2FBF3F21A4BA3FB02035B09F7
:102D8000642000FB03F3D31A1B013233154AA2FB64
:102D900003235B0903F0F0031944FA6813469B0010
:102DA00013449A001A447B685B689B00B2FBF3F201
:102DB0000C4BA3FB02035B09642000FB03F3D31A53
:102DC0001B013233074AA2FB03235B0903F00F0206
:102DD0007B681B680A449A6000BF1037BD4680BDFF
:102DE000003801401F85EB5180B582B000AF78609C
:102DF0007B68002B01D1012316E07868FDF7E2FD26
:102E00007B68DA687B681B6842F080021A607B6826
:102E10001A697B685B6842EA03017B689A687B6891
:102E20001B680A435A60002318460837BD4680BD18
:102E300080B485B000AFEFF30583BB60BB68002BA7
:102E40000FD1EFF310837B607B68002B09D1104B0F
:102E50001B68022B09D1EFF311833B603B68002B09
:102E600003D06FF00503FB600CE0094B1B68002BDF
:102E700005D1074B01221A600023FB6002E04FF0EE
:102E8000FF33FB60FB6818461437BD4680BC7047B3
:102E90000407002080B584B000AFEFF30583BB606A
:102EA000BB68002B0FD1EFF310837B607B68002B96
:102EB00009D1114B1B68022B09D1EFF311833B6041
:102EC0003B68002B03D06FF00503FB600EE00A4B5C
:102ED0001B68012B07D1084B02221A6001F024FA6B
:102EE0000023FB6002E04FF0FF33FB60FB681846F5
:102EF0001037BD4680BD00BF0407002080B592B0EA
:102F000004AFF860B9607A6000237B61EFF305835A
:102F10007B627B6A002B40F09480EFF310833B626E
:102F20003B6A002B40F08D80484B1B68022B06D17A
:102F3000EFF31183FB61FB69002B40F08280FB689B
:102F4000002B7ED080233B631823FB620023FB769B
:102F500007F11B037B634FF0FF33BB627B68002BE1
:102F600045D07B681B68002B02D07B681B687B63A5
:102F70007B689B69002B02D07B689B69FB62FB6AC4
:102F8000002B08D0FB6A382B05D87B685B6803F000
:102F90000103002B01D0002354E07B685B69002B08
:102FA00003D07B685B699B083B637B689B68002B55
:102FB0000ED07B68DB685B2B0AD97B681B69002B12
:102FC00006D07B685B69002B02D00123BB6210E056
:102FD0007B689B68002B0CD17B68DB68002B08D1D9
:102FE0007B681B69002B04D10023BB6201E0002336
:102FF000BB62BB6A012B10D17B681B697A6892683F
:1030000002920193FB6A0093BB683A6B796BF86894
:1030100000F0BEFF03467B6113E0BB6A002B10D1BA
:103020003B6B9AB207F114030193FB6A0093BB68F0
:10303000796BF86801F008F80346012B01D00023F2
:103040007B617B6918463837BD4680BD0407002088
:1030500080B586B000AF7860EFF305833B613B69D4
:10306000002B0FD1EFF31083FB60FB68002B09D11D
:103070000D4B1B68022B09D1EFF31183BB60BB68BA
:10308000002B03D06FF005037B6107E000237B6119
:103090007B68002B02D0786801F012F97B69184632
:1030A0001837BD4680BD00BF0407002080B58AB038
:1030B00000AF786000237B62EFF305833B613B69DF
:1030C000002B40F08580EFF31083FB60FB68002B42
:1030D0007ED1424B1B68022B05D1EFF31183BB60FD
:1030E000BB68002B74D17B68002B03D07B685B68C6
:1030F0003B6201E000233B623B6A03F00103002BCB
:1031000002D00123FB6101E00023FB613B6A03F075
:103110000803002B5CD14FF0FF33BB617B68002BB1
:1031200015D07B689B68002B06D07B68DB684F2B33
:1031300002D90123BB610CE07B689B68002B08D19E
:103140007B68DB68002B04D10023BB6101E0002316
:10315000BB61BB69012B12D1FB69002B07D07B68D7
:103160009B681946042000F015FB786216E07B6826
:103170009B681946012000F00DFB78620EE0BB69E8
:10318000002B0BD1FB69002B04D0042000F0EAFADD
:10319000786203E0012000F0E5FA78627B6A002B98
:1031A0000CD07B68002B03D07B681B687B6101E03F
:1031B00000237B617969786A00F08EFE7B6A002BC0
:1031C00006D0FB69002B03D07B6A43F001037B62CE
:1031D0007B6A18462837BD4680BD00BF0407002023
:1031E00080B58CB002AFF860B9607A6000237B6272
:1031F000EFF30583BB61BB69002B6FD1EFF3108345
:103200007B617B69002B69D1374B1B68022B05D191
:10321000EFF311833B613B69002B5FD1FB68002B0F
:103220005CD0BB68002B59D04FF0FF333B627B680A
:10323000002B29D07B689B68002B12D07B68DB6851
:103240004F2B0ED97B681B69002B0AD07B685A690B
:10325000FB68B96801FB03F39A4202D301233B6286
:1032600014E07B689B68002B10D17B68DB68002B27
:103270000CD17B681B69002B08D17B685B69002B34
:1032800004D100233B6201E000233B623B6A012B37
:103290000BD17B681A697B689B6800210091B96833
:1032A000F86800F06DF9786208E03B6A002B05D100
:1032B0000022B968F86800F0DAF978627B6A002BBE
:1032C0000CD07B68002B03D07B681B68FB6101E09E
:1032D0000023FB61F969786A00F0FEFD7B6A1846FD
:1032E0002837BD4680BD00BF0407002080B485B0EC
:1032F00000AFF860B9607A60FB68064A1A60BB6884
:10330000054A1A607B6880221A6000BF1437BD46E8
:1033100080BC7047080700206407002080B485B097
:1033200000AFF860B9607A60FB68074A1A60BB6852
:10333000064A1A607B684FF480721A6000BF143727
:10334000BD4680BC704700BF64090020C009002052
:1033500080B483B000AF78607B6803F108027B68BB
:103360005A607B684FF0FF329A607B6803F1080275
:103370007B68DA607B6803F108027B681A617B680E
:1033800000221A6000BF0C37BD4680BC704780B475
:1033900083B000AF78607B6800221A6100BF0C37F1
:1033A000BD4680BC704780B485B000AF786039609E
:1033B0007B685B68FB603B68FA685A60FB689A68E8
:1033C0003B689A60FB689B683A685A60FB683A6899
:1033D0009A603B687A681A617B681B685A1C7B6834
:1033E0001A6000BF1437BD4680BC704780B485B0FA
:1033F00000AF786039603B681B68BB60BB68B3F1A5
:10340000FF3F03D17B681B69FB600CE07B680833DE
:10341000FB6002E0FB685B68FB60FB685B681B6845
:10342000BA689A42F6D2FB685A683B685A603B68B1
:103430005B683A689A603B68FA689A60FB683A6829
:103440005A603B687A681A617B681B685A1C7B6803
:103450001A6000BF1437BD4680BC704780B485B089
:1034600000AF78607B681B69FB607B685B687A688B
:1034700092689A607B689B687A6852685A60FB68B9
:103480005B687A689A4203D17B689A68FB685A60E5
:103490007B6800221A61FB681B685A1EFB681A6071
:1034A000FB681B6818461437BD4680BC7047000097
:1034B00080B584B000AF786039607B68FB60FB68E2
:1034C000002B0AD14FF0500383F31188BFF36F8FA5
:1034D000BFF34F8FBB6000BFFEE702F057F8FB68F9
:1034E0001A68FB68DB6BF968096C01FB03F31A448B
:1034F000FB685A60FB6800229A63FB681A68FB68E5
:103500009A60FB681A68FB68DB6B013BF968096C21
:1035100001FB03F31A44FB68DA60FB68FF2283F8BF
:103520004420FB68FF2283F845203B68002B14D120
:10353000FB681B69002B1AD0FB681033184601F09A
:103540007DF90346002B12D00C4B4FF080521A60CD
:10355000BFF34F8FBFF36F8F09E0FB68103318463E
:10356000FFF7F6FEFB6824331846FFF7F1FE02F082
:103570003DF8012318461037BD4680BD04ED00E03C
:1035800080B58EB002AFF860B9607A603B60FB68CE
:10359000002B0AD14FF0500383F31188BFF36F8FD4
:1035A000BFF34F8FBB6200BFFEE73B68002B0AD121
:1035B0004FF0500383F31188BFF36F8FBFF34F8F2A
:1035C0007B6200BFFEE77B68002B02D0BB68002B4C
:1035D00001D0012300E00023002B0AD14FF050035B
:1035E00083F31188BFF36F8FBFF34F8F3B6200BF30
:1035F000FEE77B68002B02D1BB68002B01D10123C1
:1036000000E00023002B0AD14FF0500383F3118810
:10361000BFF36F8FBFF34F8FFB6100BFFEE75023F7
:103620007B617B69502B0AD04FF0500383F31188E4
:10363000BFF36F8FBFF34F8FBB6100BFFEE73B68E7
:10364000FB62FB6A002B0DD0FB6A012283F8462047
:1036500097F83820FB6A009313467A68B968F868CF
:1036600000F043F8FB6A18463037BD4680BD80B590
:103670008AB002AFF860B9601346FB71FB68002B9B
:103680000AD14FF0500383F31188BFF36F8FBFF35C
:103690004F8F3B6100BFFEE7BB68002B02D10023C8
:1036A000FB6104E0FB68BA6802FB03F3FB61FB69A2
:1036B0005033184602F06AF8B861BB69002B0FD08E
:1036C000BB6950337B61BB69002283F84620FA79DD
:1036D000BB69009313467A69B968F86800F005F889
:1036E000BB6918462037BD4680BD80B584B000AFA9
:1036F000F860B9607A60FB70BB68002B03D1BB69CE
:10370000BA691A6002E0BB697A681A60BB69FA6834
:10371000DA63BB69BA681A640121B869FFF7C8FEA9
:10372000BB69FA7883F84C2000BF1037BD4680BDD6
:1037300080B582B000AF78607B68002B0ED07B68CC
:1037400000225A607B6800221A607B680022DA60DF
:10375000002300220021786800F038F800BF083705
:10376000BD4680BD80B586B000AF0346FB71012326
:103770007B6100233B61FB791A4639697869FFF761
:1037800076FFF860F868FFF7D3FFFB681846183734
:10379000BD4680BD80B588B002AF03463960FB717D
:1037A00001237B6100233B61FB7900933B6800228E
:1037B00039697869FFF7E4FEF860F868FFF7B8FF49
:1037C000FB6818461837BD4680BD000080B58EB036
:1037D00000AFF860B9607A603B6000237B63FB68F0
:1037E0003B633B6B002B0AD14FF0500383F31188EE
:1037F000BFF36F8FBFF34F8FBB6200BFFEE7BB68A5
:10380000002B03D13B6B1B6C002B01D1012300E08B
:103810000023002B0AD14FF0500383F31188BFF32C
:103820006F8FBFF34F8F7B6200BFFEE73B68022BB9
:1038300003D13B6BDB6B012B01D1012300E00023A3
:10384000002B0AD14FF0500383F31188BFF36F8F21
:10385000BFF34F8F3B6200BFFEE701F0B1F90346B3
:10386000002B02D17B68002B01D1012300E0002353
:10387000002B0AD14FF0500383F31188BFF36F8FF1
:10388000BFF34F8FFB6100BFFEE701F07FFE3B6B94
:103890009A6B3B6BDB6B9A4202D33B68022B29D1BC
:1038A0003A68B968386B00F007FAF8623B6B5B6AFC
:1038B000002B10D03B6B2433184600F0BFFF0346AB
:1038C000002B13D03F4B4FF080521A60BFF34F8F45
:1038D000BFF36F8F0AE0FB6A002B07D0394B4FF024
:1038E00080521A60BFF34F8FBFF36F8F01F07EFEDF
:1038F000012363E07B68002B03D101F077FE0023F6
:103900005CE07B6B002B06D107F11403184600F036
:10391000F9FF01237B6301F069FE00F06BFD01F00C
:1039200035FE3B6B93F844305BB2B3F1FF3F03D1FC
:103930003B6B002283F844203B6B93F845305BB22D
:10394000B3F1FF3F03D13B6B002283F8452001F028
:103950004DFE3A1D07F114031146184600F0E8FF2A
:103960000346002B24D1386B00F09EFA0346002B4F
:1039700018D03B6B10337A681146184600F00EFFE2
:10398000386B00F029FA00F043FD0346002B7FF46A
:103990007CAF0C4B4FF080521A60BFF34F8FBFF3D8
:1039A0006F8F72E7386B00F017FA00F031FD6CE7AB
:1039B000386B00F011FA00F02BFD00231846383761
:1039C000BD4680BD04ED00E080B58EB000AFF8606C
:1039D000B9607A603B60FB683B633B6B002B0AD1AC
:1039E0004FF0500383F31188BFF36F8FBFF34F8FF6
:1039F0007B6200BFFEE7BB68002B03D13B6B1B6CF7
:103A0000002B01D1012300E00023002B0AD14FF04D
:103A1000500383F31188BFF36F8FBFF34F8F3B6267
:103A200000BFFEE73B68022B03D13B6BDB6B012B36
:103A300001D1012300E00023002B0AD14FF05003F5
:103A400083F31188BFF36F8FBFF34F8FFB6100BF0C
:103A5000FEE701F05DFEEFF311824FF0500383F3B8
:103A60001188BFF36F8FBFF34F8FBA617B61BB6962
:103A7000FB623B6B9A6B3B6BDB6B9A4202D33B68FE
:103A8000022B2CD13B6B93F8453087F82B303A68EA
:103A9000B968386B00F010F997F92B30B3F1FF3F9C
:103AA00012D13B6B5B6A002B16D03B6B243318465C
:103AB00000F0C4FE0346002B0ED07B68002B0BD019
:103AC0007B6801221A6007E097F82B300133DBB2E4
:103AD0005AB23B6B83F8452001237B6301E000234E
:103AE0007B63FB6A3B613B6983F3118800BF7B6B9F
:103AF00018463837BD4680BD80B58CB000AFF86041
:103B0000B9607A600023FB62FB68BB62BB6A002B72
:103B10000AD14FF0500383F31188BFF36F8FBFF3C7
:103B20004F8F3B6200BFFEE7BB68002B03D1BB6A2F
:103B30001B6C002B01D1012300E00023002B0AD1D4
:103B40004FF0500383F31188BFF36F8FBFF34F8F94
:103B5000FB6100BFFEE701F033F80346002B02D102
:103B60007B68002B01D1012300E00023002B0AD148
:103B70004FF0500383F31188BFF36F8FBFF34F8F64
:103B8000BB6100BFFEE701F001FDBB6A9B6B7B627E
:103B90007B6A002B1FD0B968B86A00F0F7F87B6A1F
:103BA0005A1EBB6A9A63BB6A1B69002B0FD0BB6AA3
:103BB0001033184600F042FE0346002B07D03D4B61
:103BC0004FF080521A60BFF34F8FBFF36F8F01F039
:103BD0000DFD012369E07B68002B03D101F006FD98
:103BE000002362E0FB6A002B06D107F110031846A0
:103BF00000F088FE0123FB6201F0F8FC00F0FAFB04
:103C000001F0C4FCBB6A93F844305BB2B3F1FF3FF0
:103C100003D1BB6A002283F84420BB6A93F8453085
:103C20005BB2B3F1FF3F03D1BB6A002283F84520AA
:103C300001F0DCFC3A1D07F110031146184600F0B4
:103C400077FE0346002B23D1B86A00F017F903462C
:103C5000002B17D0BB6A24337A681146184600F04F
:103C60009DFDB86A00F0B8F800F0D2FB0346002BC7
:103C700089D1104B4FF080521A60BFF34F8FBFF3C2
:103C80006F8F80E7B86A00F0A7F800F0C1FB7AE711
:103C9000B86A00F0A1F800F0BBFBB86A00F0EEF8DB
:103CA0000346002B3FF46FAF002318463037BD4664
:103CB00080BD00BF04ED00E080B586B000AFF860C5
:103CC000B9607A6000237B61FB689B6B3B61FB689A
:103CD0001B6C002B0DD1FB681B68002B4DD1FB68C2
:103CE0005B68184600F08AFF7861FB6800225A6022
:103CF00043E07B68002B19D1FB689868FB681B6C5C
:103D00001A46B96801F046FFFB689A68FB681B6CAD
:103D10001A44FB689A60FB689A68FB685B689A4281
:103D20002BD3FB681A68FB689A6026E0FB68D868AA
:103D3000FB681B6C1A46B96801F02CFFFB68DA6857
:103D4000FB681B6C5B421A44FB68DA60FB68DA684C
:103D5000FB681B689A4207D2FB685A68FB681B6CB9
:103D60005B421A44FB68DA607B68022B05D13B6931
:103D7000002B02D03B69013B3B613B695A1CFB684D
:103D80009A637B6918461837BD4680BD80B582B0FE
:103D900000AF786039607B681B6C002B18D07B68A3
:103DA000DA687B681B6C1A447B68DA607B68DA68C7
:103DB0007B685B689A4203D37B681A687B68DA6029
:103DC0007B68D9687B681B6C1A46386801F0E2FE94
:103DD00000BF0837BD4680BD80B584B000AF7860B5
:103DE00001F0D4FB7B6893F84530FB7311E07B68EE
:103DF0005B6A002B12D07B682433184600F01EFD4E
:103E00000346002B01D000F0F5FDFB7B013BDBB24C
:103E1000FB7397F90F30002BE9DC00E000BF7B68F3
:103E2000FF2283F8452001F0E1FB01F0AFFB7B6846
:103E300093F84430BB7311E07B681B69002B12D0F0
:103E40007B681033184600F0F9FC0346002B01D0C4
:103E500000F0D0FDBB7B013BDBB2BB7397F90E30AA
:103E6000002BE9DC00E000BF7B68FF2283F84420E0
:103E700001F0BCFB00BF1037BD4680BD80B584B0EB
:103E800000AF786001F082FB7B689B6B002B02D156
:103E90000123FB6001E00023FB6001F0A7FBFB684E
:103EA00018461037BD4680BD80B584B000AF78603D
:103EB00001F06CFB7B689A6B7B68DB6B9A4202D1EA
:103EC0000123FB6001E00023FB6001F08FFBFB6836
:103ED00018461037BD4680BD80B485B000AF78600D
:103EE00039600023FB6014E00E4AFB6852F833305F
:103EF000002B0BD10B49FB683A6841F83320094A83
:103F0000FB68DB0013447A685A6006E0FB68013303
:103F1000FB60FB68072BE7D900BF00BF1437BD4625
:103F200080BC7047C00D002080B586B000AFF8603F
:103F3000B9607A60FB687B6101F028FB7B6993F8CC
:103F400044305BB2B3F1FF3F03D17B69002283F8B9
:103F500044207B6993F845305BB2B3F1FF3F03D156
:103F60007B69002283F8452001F040FB7B699B6B55
:103F7000002B06D17B6924337A68B968184600F0B3
:103F800031FC7869FFF728FF00BF1837BD4680BDB8
:103F900080B58EB004AFF860B9607A603B607B6B2F
:103FA000002B0AD14FF0500383F31188BFF36F8FBA
:103FB000BFF34F8F3B6200BFFEE7BB6B002B0AD104
:103FC0004FF0500383F31188BFF36F8FBFF34F8F10
:103FD000FB6100BFFEE75C233B613B695C2B0AD0C1
:103FE0004FF0500383F31188BFF36F8FBFF34F8FF0
:103FF000BB6100BFFEE7BB6B002B1ED07B6B002BB1
:104000001BD0BB6B7B627B6A7A6B1A637B6A022272
:1040100083F85920002303937B6A029307F114036A
:1040200001933B6B00933B687A68B968F86800F0CD
:1040300050F8786A00F0D4F801E000237B617B69D6
:1040400018462837BD4680BD80B58CB004AFF860F7
:10405000B9603B601346FB80FB889B00184601F06B
:1040600095FB78617B69002B0ED05C2001F08EFB04
:10407000F861FB69002B03D0FB697A691A6305E0DC
:10408000786901F047FC01E00023FB61FB69002B2C
:1040900017D0FB69002283F85920FA880023039384
:1040A000FB690293FB6A0193BB6A00933B68B968A2
:1040B000F86800F00EF8F86900F092F80123BB618F
:1040C00002E04FF0FF33BB61BB6918462037BD46A5
:1040D00080BD80B588B000AFF860B9607A603B60A1
:1040E0003B6B186B7B689B001A46A52101F026FDEF
:1040F0003B6B1A6B7B6803F18043013B9B001344CD
:10410000BB61BB6923F00703BB61BB6903F0070315
:10411000002B0AD04FF0500383F31188BFF36F8F49
:10412000BFF34F8F7B6100BFFEE70023FB6112E00E
:10413000BA68FB69134419783A6BFB69134434334A
:104140000A461A70BA68FB6913441B78002B06D024
:10415000FB690133FB61FB690F2BE9D900E000BF6C
:104160003B6B002283F84320BB6A372B01D93723EE
:10417000BB623B6BBA6ADA623B6BBA6ADA643B6B6E
:1041800000221A653B6B04331846FFF700F93B6BBE
:1041900018331846FFF7FBF83B6B3A6B1A61BB6AA2
:1041A000C3F138023B6B9A613B6B3A6B5A623B6BD3
:1041B00000225A653B6B002283F858203A68F96860
:1041C000B86901F0EFF802463B6B1A60FB6A002BFE
:1041D00002D0FB6A3A6B1A6000BF2037BD4680BD33
:1041E00080B582B000AF786001F0D0F92D4B1B682C
:1041F00001332C4A13602C4B1B68002B09D12A4A2F
:104200007B681360274B1B68012B10D100F016FC54
:104210000DE0264B1B68002B09D1234B1B68DA6A83
:104220007B68DB6A9A4202D81F4A7B681360204B86
:104230001B6801331E4A13601D4B1A687B685A6461
:104240007B68DA6A1B4B1B689A4203D97B68DB6A7E
:10425000184A13607B68DA6A13469B0013449B007C
:10426000154A1A447B68043319461046FFF79BF839
:1042700001F0BCF90D4B1B68002B0ED00A4B1B68DC
:10428000DA6A7B68DB6A9A4207D20C4B4FF08052A5
:104290001A60BFF34F8FBFF36F8F00BF0837BD4663
:1042A00080BD00BFD4120020000E0020E0120020CC
:1042B000F0120020DC120020040E002004ED00E0CB
:1042C00080B584B000AF78600023FB607B68002B72
:1042D00017D0134B1B68002B0AD04FF0500383F309
:1042E0001188BFF36F8FBFF34F8FBB6000BFFEE736
:1042F00000F080F80021786800F0EEFC00F088F80B
:10430000F860FB68002B07D1064B4FF080521A6013
:10431000BFF34F8FBFF36F8F00BF1037BD4680BD17
:10432000FC12002004ED00E080B58AB004AF002349
:10433000BB6000237B603A46391D07F1080318462D
:10434000FEF7D4FF39687B68BA68029201930023B4
:10435000009300230A4621492148FFF719FE03462E
:10436000204A13601F4B1B68002B02D001237B6186
:1043700001E000237B617B69012B02D100F000FD8D
:1043800078617B69012B16D14FF0500383F31188BC
:10439000BFF36F8FBFF34F8F3B6100BF124B4FF0E6
:1043A000FF321A60114B01221A60114B00221A6071
:1043B00001F07AF80EE07B69B3F1FF3F0AD14FF0CC
:1043C000500383F31188BFF36F8FBFF34F8FFB60F0
:1043D00000BFFEE700BF1837BD4680BD285C00085F
:1043E0000D4A0008F8120020F4120020E01200200C
:1043F000D812002080B400AF044B1B680133034A7D
:10440000136000BFBD4680BC704700BFFC12002097
:1044100080B584B000AF0023FB600023BB60424B3B
:104420001B68002B0AD14FF0500383F31188BFF3B0
:104430006F8FBFF34F8F3B6000BFFEE701F0A6F820
:10444000394B1B68013B384A1360374B1B68002B04
:1044500062D1364B1B68002B5ED02FE0344BDB68FB
:10446000DB68FB60FB6818331846FEF7F7FFFB6854
:1044700004331846FEF7F2FFFB68DA6A2D4B1B681F
:104480009A4203D9FB68DB6A2A4A1360FB68DA6A3E
:1044900013469B0013449B00274A1A44FB680433CD
:1044A00019461046FEF77FFFFB68DA6A234B1B684C
:1044B000DB6A9A4202D3224B01221A601C4B1B6812
:1044C000002BCBD1FB68002B01D000F055FB1D4B1E
:1044D0001B687B607B68002B10D000F045F803461A
:1044E000002B02D0164B01221A607B68013B7B60D7
:1044F0007B68002BF1D1134B00221A60104B1B6814
:10450000002B09D00123BB600F4B4FF080521A6083
:10451000BFF34F8FBFF36F8F01F068F8BB68184689
:104520001037BD4680BD00BFFC120020D412002011
:1045300094120020DC120020040E0020000E002047
:10454000E8120020E412002004ED00E080B483B003
:1045500000AF044B1B687B607B6818460C37BD4678
:1045600080BC7047D812002080B586B000AF002311
:104570007B61514B1B68002B40F08E804F4B1B68BA
:1045800001333B614D4A3B6913603B69002B20D1ED
:104590004B4B1B681B68002B0AD04FF0500383F372
:1045A0001188BFF36F8FBFF34F8F3B6000BFFEE7F3
:1045B000434B1B68FB60434B1B68414A1360414AF5
:1045C000FB681360404B1B6801333F4A136000F0E7
:1045D000D3FA3E4B1B683A699A424ED3384B1B685C
:1045E0001B68002B01D1012300E00023002B04D025
:1045F000364B4FF0FF321A603FE0314B1B68DB68EF
:10460000DB68BB60BB685B687B603A697B689A4229
:1046100003D22E4A7B6813602FE0BB680433184630
:10462000FEF71CFFBB689B6A002B04D0BB681833E5
:104630001846FEF713FFBB68DA6A254B1B689A42DF
:1046400003D9BB68DB6A224A1360BB68DA6A134687
:104650009B0013449B001F4A1A44BB68043319464D
:104660001046FEF7A0FEBB68DA6A1B4B1B68DB6ACC
:104670009A42B3D301237B61B0E7174B1B68DA6A18
:10468000144913469B0013449B000B441B68012BE9
:1046900007D901237B6104E0104B1B6801330F4AEB
:1046A00013600F4B1B68002B01D001237B617B69DA
:1046B00018461837BD4680BDFC120020D8120020D5
:1046C0008C12002090120020EC120020F412002026
:1046D000DC120020040E0020000E0020E412002056
:1046E000E812002080B485B000AF274B1B68002B78
:1046F00003D0264B01221A6041E0244B00221A60AD
:10470000234B1B68FB6010E0FB68002B0AD14FF0C5
:10471000500383F31188BFF36F8FBFF34F8F7B601C
:1047200000BFFEE7FB68013BFB601A49FA681346CD
:104730009B0013449B000B441B68002BE4D0FA68D9
:1047400013469B0013449B00124A1344BB60BB6892
:104750005B685A68BB685A60BB685A68BB680833B4
:104760009A4204D1BB685B685A68BB685A60BB68F0
:104770005B68DB68084A1360054AFB68136000BF8A
:104780001437BD4680BC7047FC120020E8120020A0
:10479000DC120020040E0020000E002080B584B042
:1047A00000AF786039607B68002B0AD14FF050036E
:1047B00083F31188BFF36F8FBFF34F8FFB6000BF90
:1047C000FEE7074B1B68183319467868FEF70EFEA4
:1047D0000121386800F080FA00BF1037BD4680BD67
:1047E000000E002080B586B000AFF860B9607A6036
:1047F000FB68002B0AD14FF0500383F31188BFF3FD
:104800006F8FBFF34F8F7B6100BFFEE70A4B1B68C2
:1048100018331946F868FEF7C6FD7B68002B02D0F6
:104820004FF0FF33BB607968B86800F055FA00BFFD
:104830001837BD4680BD00BF000E002080B586B091
:1048400000AF78607B68DB68DB683B613B69002B0D
:104850000AD14FF0500383F31188BFF36F8FBFF37A
:104860004F8FFB6000BFFEE73B6918331846FEF729
:10487000F5FD1E4B1B68002B1DD13B690433184608
:10488000FEF7ECFD3B69DA6A194B1B689A4203D9C3
:104890003B69DB6A164A13603B69DA6A13469B0080
:1048A00013449B00134A1A443B69043319461046CB
:1048B000FEF779FD05E03B69183319460E48FEF70F
:1048C00072FD3B69DA6A0D4B1B68DB6A9A4205D9B7
:1048D00001237B610A4B01221A6001E000237B6106
:1048E0007B6918461837BD4680BD00BFFC1200200A
:1048F000DC120020040E002094120020000E002084
:10490000E812002080B483B000AF7860064B1A68CC
:104910007B681A60054B1A687B685A6000BF0C37C9
:10492000BD4680BC704700BFEC120020D8120020AA
:1049300080B588B000AF786039607B68002B0AD101
:104940004FF0500383F31188BFF36F8FBFF34F8F86
:104950003B6100BFFEE73B68002B0AD14FF05003DC
:1049600083F31188BFF36F8FBFF34F8FFB6000BFDE
:10497000FEE700F00BFE1D4B1B68BB617B685B68AC
:10498000BA69D31A7B613B681B68B3F1FF3F02D160
:104990000023FB6123E07B681A68154B1B689A4271
:1049A00007D07B685B68BA699A4202D30123FB6136
:1049B00015E03B681B687A699A420BD23B681A681B
:1049C0007B69D21A3B681A607868FFF79BFF002367
:1049D000FB6104E03B6800221A600123FB6100F0E8
:1049E00005FEFB6918462037BD4680BDD812002061
:1049F000EC12002080B400AF034B01221A6000BF0C
:104A0000BD4680BC704700BFE812002080B582B070
:104A100000AF786000F052F8064B1B68012BF9D903
:104A2000054B4FF080521A60BFF34F8FBFF36F8F6B
:104A3000F0E700BF040E002004ED00E080B582B076
:104A400000AF00237B600CE07A6813469B001344A0
:104A50009B00124A13441846FEF77AFC7B68013328
:104A60007B607B68372BEFD90D48FEF771FC0D4852
:104A7000FEF76EFC0C48FEF76BFC0C48FEF768FC7A
:104A80000B48FEF765FC0B4B054A1A600A4B054ABA
:104A90001A6000BF0837BD4680BD00BF040E00206D
:104AA000641200207812002094120020A812002026
:104AB000C01200208C1200209012002080B582B01D
:104AC00000AF19E000F062FD104BDB68DB687B6033
:104AD0007B6804331846FEF7C1FC0D4B1B68013B95
:104AE0000B4A13600B4B1B68013B0A4A136000F032
:104AF0007DFD786800F010F8064B1B68002BE1D1B3
:104B000000BF00BF0837BD4680BD00BFA81200200F
:104B1000D4120020BC12002080B584B000AF7860B1
:104B20007B6893F85930002B08D17B681B6B1846C3
:104B300000F0F0FE786800F0EDFE18E07B6893F876
:104B40005930012B03D1786800F0E4FE0FE07B6858
:104B500093F85930022B0AD04FF0500383F3118899
:104B6000BFF36F8FBFF34F8FFB6000BFFEE700BF47
:104B70001037BD4680BD000080B483B000AF0E4B3F
:104B80001B681B68002B01D1012300E00023002BD0
:104B900004D00A4B4FF0FF321A6008E0064B1B6846
:104BA000DB68DB687B607B685B68044A136000BF7E
:104BB0000C37BD4680BC70478C120020F4120020D8
:104BC00080B483B000AF0B4B1B68002B02D10123D4
:104BD0007B6008E0084B1B68002B02D102237B603E
:104BE00001E000237B607B6818460C37BD4680BC23
:104BF000704700BFE0120020FC12002080B586B094
:104C000000AF78607B683B6100237B617B68002B91
:104C100056D02E4B1B683A699A420AD04FF0500387
:104C200083F31188BFF36F8FBFF34F8FFB6000BF1B
:104C3000FEE73B691B6D002B0AD14FF0500383F355
:104C40001188BFF36F8FBFF34F8FBB6000BFFEE7CC
:104C50003B691B6D5A1E3B691A653B69DA6A3B6901
:104C6000DB6C9A422CD03B691B6D002B28D13B6931
:104C700004331846FEF7F2FB3B69DA6C3B69DA62F3
:104C80003B69DB6AC3F138023B699A613B69DA6AC6
:104C90000F4B1B689A4203D93B69DB6A0C4A1360CD
:104CA0003B69DA6A13469B0013449B00094A1A4485
:104CB0003B69043319461046FEF775FB01237B61FF
:104CC0007B6918461837BD4680BD00BF000E002026
:104CD000DC120020040E002080B584B000AF7860A4
:104CE0003960214B1B68FB60204B1B68043318465E
:104CF000FEF7B4FB7B68B3F1FF3F0AD13B68002BA2
:104D000007D01A4B1B68043319461948FEF74BFBB2
:104D100026E0FA687B681344BB60144B1B68BA68D2
:104D20005A60BA68FB689A4209D2124B1A680F4B54
:104D30001B68043319461046FEF758FB10E00E4B73
:104D40001A680A4B1B68043319461046FEF74EFBDF
:104D50000A4B1B68BA689A4202D2084ABB681360C1
:104D600000BF1037BD4680BDD8120020000E0020C5
:104D7000C0120020901200208C120020F41200209B
:104D800080B58AB004AF00237B6100F0CBFA1C4BE6
:104D90001B68002B21D00023FB600023BB603A1D61
:104DA00007F1080107F10C031846FEF7B7FA796816
:104DB000BB68FA68029201930223009300230A461B
:104DC00010491148FFF7E4F80346104A13600F4BEF
:104DD0001B68002B01D001237B617B69002B0AD16A
:104DE0004FF0500383F31188BFF36F8FBFF34F8FE2
:104DF0003B6100BFFEE77B6918461837BD4680BDA2
:104E000030130020305C00082D4F000834130020C0
:104E100080B58AB000AFF860B9607A603B6000236B
:104E20007B62FB68002B0AD14FF0500383F311889B
:104E3000BFF36F8FBFF34F8F3B6200BFFEE71A4B8C
:104E40001B68002B2AD0BB683B617B687B61FB68D9
:104E5000BB61BB68052B18DCFFF7B2FE0346022BD3
:104E600009D1114B186807F1100100233A6BFEF7C6
:104E7000ADFC786212E00C4B186807F110010023BA
:104E80000022FEF7A3FC786208E0074B186807F1E0
:104E9000100100233A68FEF797FD78627B6A184696
:104EA0002837BD4680BD00BF3013002080B588B0D4
:104EB00002AF786039601C4B1B68DB68DB687B6184
:104EC0007B6904331846FEF7C9FA7B69DB69012B5D
:104ED00022D17B699A697B68D1187B683A687869C6
:104EE00000F0C8F80346002B16D0002300930023DF
:104EF0007A6800217869FFF78BFF38613B69002BE6
:104F00000AD14FF0500383F31188BFF36F8FBFF3C3
:104F10004F8FFB6000BFFEE77B695B6A786998474B
:104F200000BF1837BD4680BD2813002080B584B06F
:104F300000AF786007F10803184600F057F8F860F2
:104F4000BB681946F86800F003F800F0D5F8F1E7FF
:104F500080B584B000AF78603960FFF74BFA07F195
:104F60000803184600F066F8F860BB68002B30D1E3
:104F70003B68002B0AD17A68FB689A4206D8FFF793
:104F800047FAF9687868FFF791FF24E03B68002B47
:104F900008D0134B1B681B68002B0CBF0123002398
:104FA000DBB23B600F4B18687A68FB68D31A3A682B
:104FB0001946FEF7B9FFFFF72BFA0346002B0AD17B
:104FC000094B4FF080521A60BFF34F8FBFF36F8FC2
:104FD00001E0FFF71DFA00BF1037BD4680BD00BFDE
:104FE0002C1300203013002004ED00E080B485B0C5
:104FF00000AF78600E4B1B681B68002B0CBF0123B1
:105000000023DBB21A467B681A607B681B68002BA2
:1050100005D1074B1B68DB681B68FB6001E00023C0
:10502000FB60FB6818461437BD4680BC704700BF64
:105030002813002080B584B000AF7860FFF786FAAF
:10504000F8600B4B1B68FA689A4205D200F008F929
:105050007B6801221A6002E07B6800221A60044A21
:10506000FB681360FB6818461037BD4680BD00BF63
:105070003813002080B586B000AFF860B9607A6060
:105080003B6000237B61FB68BA685A60FB68FA6882
:105090001A61BA687B689A4212D87A683B68D21A59
:1050A000FB689B699A4202D301237B611BE0104B92
:1050B0001A68FB68043319461046FEF797F912E0A8
:1050C0007A683B689A4206D2BA683B689A4202D331
:1050D00001237B6107E0074B1A68FB68043319461C
:1050E0001046FEF783F97B6918461837BD4680BD28
:1050F0002C1300202813002080B58EB002AF9DE055
:105100007B68002B18DA3B1D0433FB62FB6A002B23
:105110000AD14FF0500383F31188BFF36F8FBFF3B1
:105120004F8FFB6100BFFEE7FB6A1B68FA6A50689D
:10513000FA6A9268114698477B68002B7EDBFB6811
:10514000BB62BB6A5B69002B04D0BB6A04331846A0
:10515000FEF784F93B461846FFF76CFF78627B68E0
:10516000092B6AD801A252F823F000BF955100081C
:1051700095510008955100083D520008F151000872
:105180002952000895510008955100083D52000829
:10519000F1510008BA68BB6A9B69D118BB687A6A8A
:1051A000B86AFFF767FF0346002B47D0BB6A5B6A0C
:1051B000B86A9847BB6ADB69012B3FD1BA68BB6A02
:1051C0009B691A440023009300230021B86AFFF76B
:1051D0001FFE38623B6A002B30D14FF0500383F33F
:1051E0001188BFF36F8FBFF34F8FBB6100BFFEE726
:1051F000BA68BB6A9A61BB6A9B69002B0AD14FF0FF
:10520000500383F31188BFF36F8FBFF34F8F7B6120
:1052100000BFFEE7BB6A9A697B6AD1187B6A7A6A2B
:10522000B86AFFF727FF09E0BB6A93F82C30002B20
:1052300004D1B86A00F06EFB00E000BF074B1B68AA
:10524000391D00221846FEF757FC0346002B7FF459
:1052500057AF00BF00BF3037BD4680BD30130020C0
:1052600080B588B002AF45E02C4B1B68DB681B683B
:105270003B612A4B1B68DB68DB68FB60FB6804331F
:105280001846FEF7EBF8FB685B6AF8689847FB681E
:10529000DB69012B2ED1FB689B693A691344BB6023
:1052A000BA683B699A420ED9FB68BA685A60FB68D3
:1052B000FA681A61194B1A68FB68043319461046DC
:1052C000FEF794F816E00023009300233A690021CA
:1052D000F868FFF79DFD78607B68002B0AD14FF0DE
:1052E000500383F31188BFF36F8FBFF34F8F3B6081
:1052F00000BFFEE7094B1B681B68002BB4D1074BAE
:105300001B687B61064B1B68044A1360044A7B6977
:10531000136000BF1837BD4680BD00BF28130020B2
:105320002C13002080B582B002AF00F02FF9154B8E
:105330001B68002B20D11448FEF70AF81348FEF72B
:1053400007F8134B104A1A60124B104A1A600023D8
:105350000093114B114A10210A20FEF711F9034660
:10536000084A1360074B1B68002B05D0054B1B68D0
:105370000B491846FEF7B0FD00F038F900BFBD46F6
:1053800080BD00BF30130020001300201413002044
:10539000281300202C130020DC1300203C130020D5
:1053A000385C000880B485B000AFF860B9607A60FE
:1053B000FB68043BFB60FB684FF080721A60FB687F
:1053C000043BFB60BB6823F00102FB681A60FB68CA
:1053D000043BFB60084AFB681A60FB68143BFB60F7
:1053E0007A68FB681A60FB68203BFB60FB68184624
:1053F0001437BD4680BC7047FD53000880B485B0AB
:1054000000AF00237B60124B1B68B3F1FF3F0AD053
:105410004FF0500383F31188BFF36F8FBFF34F8FAB
:10542000FB6000BFFEE74FF0500383F31188BFF32A
:105430006F8FBFF34F8FBB6000BF00BF7B68002B37
:10544000FCD000BF00BF1437BD4680BC704700BF12
:10545000A00100200000000000000000000000008B
:10546000074B19680868B0E8F00F80F30988BFF3AC
:105470006F8F4FF0000080F311884EF00D0E7047D3
:10548000000E002000BF00BF06480068006880F3DF
:10549000088862B661B6BFF34F8FBFF36F8F00DF2E
:1054A00000BF00BF08ED00E080B584B000AF324B14
:1054B000FB60FB681B78DBB27B60FB68FF221A7025
:1054C000FB681B78DBB2FB70FB78DBB203F05003A8
:1054D000DAB22A4B1A702A4B07221A6009E0284BCD
:1054E0001B68013B264A1360FB78DBB25B00DBB232
:1054F000FB70FB78DBB203F08003802BEFD0204BF6
:105500001B68C3F10703042B0AD04FF0500383F349
:105510001188BFF36F8FBFF34F8FBB6000BFFEE7F3
:10552000174B1B681B02164A1360154B1B6803F4CC
:10553000E063134A13607B68DAB2FB681A70114BA0
:105540001B68104A43F4700313600E4B1B680D4A2E
:1055500043F07043136000F0B9F80B4B00221A605F
:10556000FFF792FFFFF7BEF8FFF748FF002318464A
:105570001037BD4680BD00BF00E400E02C140020C1
:105580003014002020ED00E0A001002080B483B0A2
:1055900000AF4FF0500383F31188BFF36F8FBFF359
:1055A0004F8F7B6000BF0F4B1B6801330D4A1360A8
:1055B0000C4B1B68012B0FD10B4B1B68DBB2002B74
:1055C0000AD04FF0500383F31188BFF36F8FBFF3FE
:1055D0004F8F3B6000BFFEE700BF0C37BD4680BC6D
:1055E000704700BFA001002004ED00E080B483B04C
:1055F00000AF114B1B68002B0AD14FF0500383F30F
:105600001188BFF36F8FBFF34F8F7B6000BFFEE742
:10561000094B1B68013B084A1360074B1B68002BB2
:1056200005D100233B603B6883F3118800BF00BFB6
:105630000C37BD4680BC7047A00100200000000070
:10564000EFF30980BFF36F8F0D4B1A6820E9F00F5D
:1056500010602DE908404FF0500080F31188FFF7EB
:1056600041F84FF0000080F31188BDE80840196848
:105670000868B0E8F00F80F30988BFF36F8F7047B8
:10568000000E002000BF00BF80B582B000AF4FF019
:10569000500383F31188BFF36F8FBFF34F8F7B608D
:1056A00000BFFEF761FF0346002B03D0064B4FF00F
:1056B00080521A6000233B603B6883F3118800BF6F
:1056C00000BF0837BD4680BD04ED00E080B400AFE8
:1056D0000A4B00221A600A4B00221A60094B1B6811
:1056E000094AA2FB03239B09084A013B1360034BB1
:1056F00007221A6000BFBD4680BC704710E000E082
:1057000018E000E094010020D34D621014E000E0A6
:1057100080B485B000AFEFF30583FB60FB680F2B0F
:1057200014D9164AFB6813441B78FB72144B1B7880
:10573000FA7A9A420AD24FF0500383F31188BFF3EA
:105740006F8FBFF34F8F7B6000BFFEE70D4B1B6871
:1057500003F4E0620C4B1B689A420AD94FF05003E5
:1057600083F31188BFF36F8FBFF34F8F3B6000BF90
:10577000FEE700BF1437BD4680BC7047F0E300E091
:105780002C1400200CED00E03014002080B58AB00D
:1057900000AF78600023FB61FEF72CFE584B1B68BE
:1057A000002B01D100F010F9564B1A687B681340AA
:1057B000002B40F08E807B68002B1DD008227B6878
:1057C00013447B607B6803F00703002B14D07B68D5
:1057D00023F0070308337B607B6803F00703002B8B
:1057E0000AD04FF0500383F31188BFF36F8FBFF3DC
:1057F0004F8F7B6100BFFEE77B68002B69D0424B77
:105800001B687A689A4264D8404B3B623F4B1B68E6
:105810007B6204E07B6A3B627B6A1B687B627B6A1B
:105820005B687A689A4203D97B6A1B68002BF1D1C6
:10583000334B1B687A6A9A424BD03B6A1B6808223A
:105840001344FB617B6A1A683B6A1A607B6A5A6878
:105850007B68D21A08235B009A421FD97A6A7B6858
:105860001344BB61BB6903F00703002B0AD04FF060
:10587000500383F31188BFF36F8FBFF34F8F3B61EA
:1058800000BFFEE77B6A5A687B68D21ABB695A6020
:105890007B6A7A685A60B86900F0F8F81A4B1A689F
:1058A0007B6A5B68D31A184A1360174B1A68184B47
:1058B0001B689A4203D2144B1B68154A13607B6A1B
:1058C0005A68104B1B681A437B6A5A607B6A002235
:1058D0001A60FEF79DFDFB6903F00703002B0AD059
:1058E0004FF0500383F31188BFF36F8FBFF34F8FD7
:1058F000FB6000BFFEE7FB6918462837BD4680BD48
:105900003C2000204820002040200020342000209F
:105910004420002080B586B000AF78607B687B6152
:105920007B68002B48D008235B427A6913447B6173
:105930007B693B613B695A68214B1B681340002B14
:105940000AD14FF0500383F31188BFF36F8FBFF379
:105950004F8FFB6000BFFEE73B691B68002B0AD03E
:105960004FF0500383F31188BFF36F8FBFF34F8F56
:10597000BB6000BFFEE73B695A68114B1B681340D0
:10598000002B19D03B691B68002B15D13B695A6865
:105990000B4B1B68DB431A403B695A60FEF72AFD3C
:1059A0003B695A68074B1B681344064A1360386901
:1059B00000F06CF8FEF72CFD00BF1837BD4680BD27
:1059C000482000204020002080B485B000AF4FF474
:1059D0004063BB60274BFB60FB6803F00703002BB1
:1059E0000CD0FB680733FB60FB6823F00703FB6008
:1059F000BA68FB68D31A1F4A1344BB60FB687B601C
:105A00001D4A7B6813601C4B00225A607B68BA6891
:105A10001344FB600822FB689B1AFB60FB6823F0C1
:105A20000703FB60FB68154A1360144B1B680022D8
:105A30005A60124B1B6800221A607B683B603B680F
:105A4000FA68D21A3B685A600C4B1A683B681A60B5
:105A50003B685B680A4A13603B685B68094A1360ED
:105A6000094B4FF000421A6000BF1437BD4680BC9E
:105A7000704700BF34140020342000203C20002058
:105A800044200020402000204820002080B485B021
:105A900000AF7860274BFB6002E0FB681B68FB608F
:105AA000FB681B687A689A42F7D8FB68BB60FB68A2
:105AB0005B68BA6813447A689A4208D1FB685A68EE
:105AC0007B685B681A44FB685A60FB687B607B6894
:105AD000BB607B685B68BA681A44FB681B689A42C3
