:020000040800F2
:1000000000500020550C0008E50B0008ED0B00081F
:10001000F50B0008FD0B0008050C000800000000AF
:10002000000000000000000000000000415800082F
:100030000D0C000800000000215A0008190C0008EF
:100040009D0C00089D0C00089D0C00089D0C0008EC
:100050009D0C00089D0C00089D0C00089D0C0008DC
:100060009D0C00089D0C00089D0C00089D0C0008CC
:100070009D0C00089D0C00089D0C00089D0C0008BC
:100080009D0C00089D0C00089D0C00089D0C0008AC
:100090009D0C00089D0C00089D0C00089D0C00089C
:1000A0009D0C00089D0C00089D0C00089D0C00088C
:1000B0009D0C00089D0C00089D0C00089D0C00087C
:1000C0009D0C00089D0C00089D0C00089D0C00086C
:1000D0009D0C0008350C00089D0C00089D0C0008C4
:1000E0009D0C00089D0C00089D0C000800000000FD
:1000F0000000000000000000000000000000000000
:0C01000000000000000000005FF808F1A3
:1001100010B5054C237833B9044B13B10448AFF341
:1001200000800123237010BDA80100200000000002
:10013000A05F000808B5034B1BB103490348AFF3A8
:10014000008008BD00000000AC010020A05F000896
:1001500080B582B000AF7860012003F0BDF8FBE706
:1001600080B582B000AF78607B681B680B4A934211
:1001700010D14FF400510A4801F050F9094B1868AA
:1001800000230022084903F05BF9012206490748D1
:1001900002F05AFA00BF0837BD4680BD0038014062
:1001A0000010014078020020C40100201C02002041
:1001B00080B500AF00F074FD00F068F800F0FAF8C8
:1001C00000F0A0F800F0CCF81E4800F057F902F05B
:1001D00073FF01221C491D4802F036FA1C4A012116
:1001E000102003F0A7F803461A4A13601A4A0121A7
:1001F000102003F09FF80346184A1360184A0121A3
:10020000102003F097F80346164A1360164A00219F
:10021000164802F0B7FF0346154A1360154A00213D
:10022000154802F0AFFF0346144A1360144A002138
:10023000144802F0A7FF0346134A136002F06EFF52
:1002400000BFFDE7C8010020C40100201C020020FF
:10025000A060000870020020B8600008740200204E
:10026000D0600008780200203460000851010008C6
:100270006402002058600008590400086802002049
:100280007C6000081D0A00086C02002080B590B058
:1002900000AF07F1180328220021184605F046FE9A
:1002A0003B1D00221A605A609A60DA601A610223CC
:1002B000BB610123BB621023FB6200237B6307F158
:1002C0001803184601F060FD0346002B01D000F032
:1002D000BDF80F237B600023BB600023FB6000237D
:1002E0003B6100237B613B1D0021184601F0CEFFDE
:1002F0000346002B01D000F0A9F800BF4037BD46EF
:1003000080BD000080B500AF124B134A1A60114B3C
:10031000124A5A600F4B00229A600E4B0022DA609C
:100320000C4B4FF480421A610A4B00225A61094B70
:1003300000229A61074B0022DA61064B00221A6202
:10034000044801F085F80346002B01D000F07EF848
:1003500000BF80BDC801002000540040A0860100FD
:1003600080B500AF114B124A1A60104B4FF4165271
:100370005A600E4B00229A600C4B0022DA600B4B45
:1003800000221A61094B0C225A61084B00229A6123
:10039000064B0022DA61054802F006F90346002BFD
:1003A00001D000F053F800BF80BD00BF1C02002048
:1003B0000038014080B588B000AF07F1100300227B
:1003C0001A605A609A60DA601E4B9B691D4A43F0BE
:1003D000100393611B4B9B6903F01003FB60FB68E8
:1003E000184B9B69174A43F004039361154B9B69B3
:1003F00003F00403BB60BB68124B9B69114A43F0D6
:10040000080393610F4B9B6903F008037B607B68D3
:1004100000224FF400510C4800F0E8FF4FF4005365
:100420003B6101237B610023BB610223FB6107F178
:1004300010031946044800F055FE00BF2037BD46A2
:1004400080BD00BF001002400010014080B400AF2A
:1004500072B600BF00BFFDE780B582B000AF786024
:100460004FF40051044800F0D9FF4FF47A7002F0C5
:1004700033FF00BFF4E700BF0010014080B582B039
:1004800000AF78604FF4806200210C4805F04EFD0B
:10049000202200210A4805F049FD0A4A7B681360C2
:1004A00000F07AF82D224321074800F0B8F900F057
:1004B000C5F800BF0837BD4680BD00BF7C020020E4
:1004C0007C0600209C0600200000002080B586B03D
:1004D00002AF0346FB71032200210A4805F026FD06
:1004E00000233B73FB797B73074B186807F10C0201
:1004F000642300930223782101F0EEF800BF103747
:10050000BD4680BD7C0200209C06002080B586B0E0
:1005100002AF786039600123FB73202200211C4860
:1005200005F004FD1DE0FB7B1F2B10D9194B18684B
:100530004FF47A7300932023154A782101F0CCF808
:1005400020220021124805F0F1FC0123FB737B6897
:100550005A1C7A60FA7B19780D4B9954FB7B013356
:10056000FB733B685A1E3A60002BDCD1FB7B002BEF
:100570000AD0084B1868FB7B9BB24FF47A7200924A
:10058000034A782101F0A8F800BF1037BD4680BDAE
:100590007C0600209C06002080B500AFAE20FFF74F
:1005A00095FFD520FFF792FF8020FFF78FFFA8204F
:1005B000FFF78CFF3F20FFF789FFD320FFF786FF6F
:1005C0000020FFF783FF4020FFF780FF8D20FFF71B
:1005D0007DFF1420FFF77AFF2020FFF777FF002030
:1005E000FFF774FFA120FFF771FFC820FFF76EFF30
:1005F000DA20FFF76BFF1220FFF768FF8120FFF77B
:1006000065FFCF20FFF762FFD920FFF75FFFF120E2
:10061000FFF75CFFDB20FFF759FF4020FFF756FF95
:10062000A420FFF753FFA620FFF750FF2E20FFF76F
:100630004DFFAF20FFF74AFF00BF80BD80B586B0F9
:1006400002AF4FF48063FB60294BBB600123FB7159
:10065000284A3B4692E803001860043319703B4671
:1006600005211846FFF752FF7F20FFF72FFF2022BA
:100670000021214805F05AFC1F4B40221A7020E04F
:10068000FB791F2B13D91D4B18684FF47A73009315
:100690002023194A782101F01FF820220021164852
:1006A00005F044FC144B40221A700123FB71BB6817
:1006B0005A1CBA60FA7919780F4B9954FB790133B7
:1006C000FB71FB685A1EFA60002BD9D1FB79002B15
:1006D0000AD00A4B1868FB799BB24FF47A720092E9
:1006E000054A782100F0F8FF00BF1037BD4680BDF5
:1006F0007C020020046000087C0600209C0600208C
:1007000080B500AF4FF480620021034805F00EFC75
:10071000FFF794FF00BF80BD7C02002080B483B04F
:1007200000AF786039607B68002B22DB7B687F2B11
:100730001FDC3B68002B1CDB3B683F2B19DC3B6854
:10074000002B00DA0733DB10D9017A680A440B4921
:100750008A5C51B23A6802F00702012000FA02F204
:1007600052B20A4351B2DA017B681344C9B2034A58
:10077000D15400BF0C37BD4680BC70477C020020BE
:1007800080B588B000AFF860B9607A603B603B68C4
:100790000733002B00DA0733DB103B6100237B615A
:1007A0000023BB6132E00023FB6128E0FB6903F01A
:1007B0000703002B03D07B695B007B610EE0BB6904
:1007C0003A6903FB02F2FB69002B00DA0733DB1006
:1007D00013441A467B6813441B787B617B6903F0E2
:1007E0008003002B08D0FA68FB69D018BA68BB698F
:1007F00013441946FFF792FFFB690133FB61FA6965
:100800003B689A42D2DBBB690133BB61BA69BB6A00
:100810009A42C8DB00BF00BF2037BD4680BD80B50F
:1008200086B002AFF860B9607A607B68C3F180037C
:10083000DA0F13445B101846BB68C3F14003DA0FAC
:1008400013445B101946BB6800937B68FA68FFF796
:1008500097FF00BF1037BD4680BD000080B586B051
:1008600000AF0346FB800B46BB801346FB70B7F915
:1008700006307F2B48DCB7F90630002B44DBB7F994
:1008800004303F2B40DCB7F90430002B3CDBB7F9D8
:100890000630792B38DCB7F90430392B34DCFB789F
:1008A000203B9BB2DB009BB27B8100237B6125E078
:1008B000B7F90A207B691344154AD35CFB740723FC
:1008C000FB6015E0FB7C03F00103002B0AD0B7F9B5
:1008D00006207B69D018B7F90420FB68D31A1946A3
:1008E000FFF71CFFFB7C5B08FB74FB68013BFB60B4
:1008F000FB68002BE6DA7B6901337B617B69072BA0
:10090000D6DDFFF79BFE00E000BF1837BD4680BD77
:10091000E860000880B584B000AFF860B9607A6024
:100920007B681B78002B32D0FB681B78772B15D99E
:10093000BB681B78372B08D9FB6800221A70BB688C
:1009400000221A70FFF7DCFE08E0BB681B78083352
:10095000DAB2BB681A70FB6800221A70FB681B7859
:1009600018B2BB681B7819B27B681B781A46FFF770
:1009700075FFFB681B780833DAB2FB681A707B6876
:1009800001331A46B968F868FFF7C4FF00E000BFFA
:100990001037BD4680BD000080B582B000AF034671
:1009A000FB71FB791F2B02D9FB797E2B05D9184AE5
:1009B00018491948FFF7AEFF26E0174B1B681BB21A
:1009C000144A126811B2FA791846FFF747FF124B22
:1009D0001B68772B13DD0F4B1B68372B06DD0E4B87
:1009E00000221A600B4B08221A600DE0094B1B68AD
:1009F0000833084A1360084B00221A6004E0064BD3
:100A00001B680833044A13600837BD4680BD00BF29
:100A10000C60000894010020A006002080B584B07E
:100A200000AF7860094B186807F10B010023002222
:100A300002F07AFDF860FB68002B03D1FB7A1846C0
:100A4000FFF7AAFF012002F047FCEBE77802002045
:100A500080B584B000AF184B9B69174A43F001037F
:100A60009361154B9B6903F00103BB60BB68124B9C
:100A7000DB69114A43F08053D3610F4BDB6903F00C
:100A800080537B607B6800220F216FF0010000F033
:100A900040FA0A4B5B68FB60FB6823F0E063FB6095
:100AA000FB6843F00073FB60044AFB68536000BFBF
:100AB0001037BD4680BD00BF00100240000001405D
:100AC00080B588B000AF786007F1100300221A608B
:100AD0005A609A60DA607B681B68154A934223D19A
:100AE000144B9B69134A43F008039361114B9B69B4
:100AF00003F00803FB60FB68C0233B6112237B61AA
:100B00000323FB6107F1100319460B4800F0EAFAD2
:100B1000084BDB69074A43F40013D361054BDB69DB
:100B200003F40013BB60BB6800BF2037BD4680BD27
:100B30000054004000100240000C014080B588B015
:100B400000AF786007F1100300221A605A609A60C3
:100B5000DA607B681B68204A934239D11F4B9B693E
:100B60001E4A43F4804393611C4B9B6903F480430A
:100B7000FB60FB68194B9B69184A43F004039361BF
:100B8000164B9B6903F00403BB60BB684FF4007312
:100B90003B6102237B610323FB6107F110031946CC
:100BA0000F4800F09FFA4FF480633B6100237B61A4
:100BB0000023BB6107F110031946094800F092FABF
:100BC00000220521252000F0A4F9252000F0BDF920
:100BD00000BF2037BD4680BD0038014000100240F4
:100BE0000008014080B400AF00BFFDE780B400AF53
:100BF00000BFFDE780B400AF00BFFDE780B400AFE9
:100C000000BFFDE780B400AF00BFFDE780B400AFD8
:100C100000BFBD4680BC704780B500AF00F086F8CD
:100C200004F0B4F90346012B01D004F01DFF00BF0E
:100C300080BD000080B500AF024801F02BFD00BF71
:100C400080BD00BF1C02002080B400AF00BFBD46C5
:100C500080BC7047FFF7F8FF0B480C490C4A002393
:100C600002E0D458C4500433C4188C42F9D3094A62
:100C7000094C002301E013600432A242FBD305F0CB
:100C80005DF9FFF795FA704700000020A8010020E9
:100C90001C640008A8010020F01F0020FEE70000EF
:100CA00080B500AF084B1B68074A43F01003136080
:100CB000032000F023F90F2000F008F8FFF7C8FE2A
:100CC0000023184680BD00BF0020024080B582B0DE
:100CD00000AF7860124B1A68124B1B7819464FF41C
:100CE0007A73B3FBF1F3B2FBF3F3184600F03BF970
:100CF0000346002B01D001230EE07B680F2B0AD89E
:100D0000002279684FF0FF3000F003F9064A7B6853
:100D10001360002300E0012318460837BD4680BD5C
:100D200098010020A00100209C01002080B400AFA9
:100D3000054B1B781A46054B1B681344034A136086
:100D400000BFBD4680BC7047A0010020A406002063
:100D500080B400AF024B1B681846BD4680BC70478C
:100D6000A406002080B485B000AF78607B6803F0F3
:100D70000703FB600C4BDB68BB60BA684FF6FF03F0
:100D80001340BB60FB681A02BB68134343F0BF63A8
:100D900043F40033BB60044ABB68D36000BF143720
:100DA000BD4680BC704700BF00ED00E080B400AFDE
:100DB000044BDB681B0A03F007031846BD4680BCE2
:100DC000704700BF00ED00E080B483B000AF034681
:100DD000FB7197F90730002B0BDBFB7903F01F0247
:100DE000064997F907305B09012000FA02F241F841
:100DF000232000BF0C37BD4680BC704700E100E0F7
:100E000080B483B000AF03463960FB7197F90730B7
:100E1000002B0ADB3B68DAB20C4997F90730120164
:100E2000D2B20B4483F800230AE03B68DAB20849E7
:100E3000FB7903F00F03043B1201D2B20B441A7684
:100E400000BF0C37BD4680BC704700BF00E100E02A
:100E500000ED00E080B489B000AFF860B9607A605E
:100E6000FB6803F00703FB61FB69C3F10703042B75
:100E700028BF0423BB61FB690433062B02D9FB693D
:100E8000033B00E000237B614FF0FF32BB6902FAB5
:100E900003F3DA43BB681A407B699A404FF0FF3195
:100EA0007B6901FA03F3D9437B680B40134318466F
:100EB0002437BD4680BC704780B582B000AF7860F3
:100EC0007B68013BB3F1807F01D301230FE00A4A25
:100ED0007B68013B53600F214FF0FF30FFF790FF1D
:100EE000054B00229A60044B07221A600023184623
:100EF0000837BD4680BD00BF10E000E080B582B07D
:100F000000AF78607868FFF72DFF00BF0837BD4657
:100F100080BD80B586B000AF0346B9607A60FB73D0
:100F200000237B61FFF742FF78617A68B9687869CE
:100F3000FFF790FF024697F90F3011461846FFF76A
:100F40005FFF00BF1837BD4680BD80B582B000AFDF
:100F50000346FB7197F907301846FFF735FF00BFCE
:100F60000837BD4680BD80B582B000AF7860786834
:100F7000FFF7A2FF034618460837BD4680BD80B480
:100F800085B000AF78600023FB737B6893F8213055
:100F9000DBB2022B08D07B6804229A637B680022B4
:100FA00083F82020012320E07B681B681A687B6897
:100FB0001B6822F00E021A607B681B681A687B6847
:100FC0001B6822F001021A607B681A6C7B68DB6B7D
:100FD000012101FA02F25A607B68012283F8212084
:100FE0007B68002283F82020FB7B18461437BD461F
:100FF00080BC704780B584B000AF78600023FB737D
:101000007B6893F82130DBB2022B05D07B68042289
:101010009A630123FB7351E07B681B681A687B6845
:101020001B6822F00E021A607B681B681A687B68D6
:101030001B6822F001021A607B681B68224A9342F7
:1010400029D07B681B68214A934222D07B681B68A9
:101050001F4A93421AD07B681B681E4A934212D0E3
:101060007B681B681C4A93420AD07B681B681B4A3A
:10107000934202D14FF480130EE04FF080730BE0E7
:101080004FF4803308E04FF4805305E04FF4807351
:1010900002E0102300E00123114A53607B68012223
:1010A00083F821207B68002283F820207B685B6B1B
:1010B000002B03D07B685B6B78689847FB7B1846F6
:1010C0001037BD4680BD00BF080002401C00024032
:1010D0003000024044000240580002406C000240D0
:1010E0000000024080B48BB000AF7860396000230C
:1010F0007B6200233B6269E101227B6A02FA03F30F
:10110000FB613B681B68FA691340BB61BA69FB6904
:101110009A4240F058813B685B689A4A93425ED09D
:10112000984A934275D8984A934258D0964A934227
:101130006FD8964A934252D0944A934269D8944ABF
:1011400093424CD0924A934263D8924A934246D0FB
:10115000904A93425DD8122B2AD8122B59D801A25B
:1011600052F823F0DF110008B9110008CB11000874
:101170000D120008131200081312000813120008C1
:1011800013120008131200081312000813120008AB
:10119000131200081312000813120008131200089B
:1011A0001312000813120008C1110008D51100081D
:1011B000794A934213D02CE03B68DB683B6229E01C
:1011C0003B68DB6804333B6224E03B68DB68083340
:1011D0003B621FE03B68DB680C333B621AE03B6814
:1011E0009B68002B02D104233B6213E03B689B68A1
:1011F000012B05D108233B627B68FA691A6109E07B
:1012000008233B627B68FA695A6103E000233B6272
:1012100000E000BFBB69FF2B01D87B6801E07B6861
:1012200004337B61BB69FF2B02D87B6A9B0002E021
:101230007B6A083B9B003B617B691A680F213B6915
:1012400001FA03F3DB431A40396A3B6901FA03F3FD
:101250001A437B691A603B685B6803F08053002B7C
:1012600000F0B1804D4B9B694C4A43F00103936100
:101270004A4B9B6903F00103BB60BB68484A7B6A29
:101280009B08023352F82330FB607B6A03F00303B0
:101290009B000F2202FA03F3DB43FA681340FB6062
:1012A0007B68404A934213D07B683F4A93420DD0FB
:1012B0007B683E4A934207D07B683D4A934201D106
:1012C000032306E0042304E0022302E0012300E0FC
:1012D00000237A6A02F0030292009340FA681343F3
:1012E000FB602F497B6A9B080233FA6841F8232090
:1012F0003B685B6803F48013002B06D02D4B9A6883
:101300002C49BB6913438B6006E02A4B9A68BB6982
:10131000DB43284913408B603B685B6803F4001390
:10132000002B06D0234BDA682249BB691343CB60FC
:1013300006E0204BDA68BB69DB431E491340CB60F3
:101340003B685B6803F40033002B06D0194B5A68E6
:101350001849BB6913434B6006E0164B5A68BB69DA
:10136000DB43144913404B603B685B6803F48033F4
:10137000002B21D00F4B1A680E49BB6913430B6039
:1013800021E000BF000032100000311000002210E8
:101390000000211000001210000011100010024087
:1013A0000000014000080140000C01400010014015
:1013B00000140140000401400B4B1A68BB69DB4379
:1013C000094913400B607B6A01337B623B681A68F2
:1013D0007B6A22FA03F3002B7FF48EAE00BF00BFBE
:1013E0002C37BD4680BC70470004014080B483B0F8
:1013F00000AF78600B467B8013467B707B78002BB8
:1014000003D07A887B681A6103E07B881A047B68C2
:101410001A6100BF0C37BD4680BC704780B485B0F0
:1014200000AF78600B467B807B68DB68FB607A8866
:10143000FB6813401A04FB68D9437B880B401A43AE
:101440007B681A6100BF1437BD4680BC704700003E
:1014500080B584B000AF78607B68002B01D1012398
:101460002BE17B6893F83D30DBB2002B06D17B6823
:10147000002283F83C207868FFF722FB7B68242257
:1014800083F83D207B681B681A687B681B6822F024
:1014900001021A607B681B681A687B681B6842F44B
:1014A00000421A607B681B681A687B681B6822F41C
:1014B00000421A6001F032F8F8607B685B68814A8C
:1014C000934207D8FB68804A934294BF01230023CC
:1014D000DBB206E0FB687D4A934294BF0123002300
:1014E000DBB2002B01D00123E7E0FB68784AA2FBC6
:1014F00003239B0CBB607B681B685B6823F03F0188
:101500007B681B68BA680A435A607B681B681B6A61
:1015100023F03F017B685B686A4A934202D8BB684C
:10152000013309E0BB684FF4967202FB03F3694A8A
:10153000A2FB03239B0901337A6812680B431362F1
:101540007B681B68DB6923F44F4222F0FF027B6853
:101550005B685C498B4219D8FB68591E7B685B68E5
:101560005B00B1FBF3F3591C40F6FC730B40002BFE
:101570000AD0FB68591E7B685B685B00B1FBF3F324
:101580000133C3F30B0351E004234FE07B689B68F6
:10159000002B11D1FB68581E7B6859680B465B0015
:1015A0000B44B0FBF3F30133C3F30B03002B0CBF6D
:1015B00001230023DBB212E0FB68581E7B685968E8
:1015C0000B469B000B4499000B44B0FBF3F3013333
:1015D000C3F30B03002B0CBF01230023DBB2002B52
:1015E00001D0012322E07B689B68002B0ED1FB68B1
:1015F000581E7B6859680B465B000B44B0FBF3F345
:101600000133C3F30B0343F400430FE0FB68581EA0
:101610007B6859680B469B000B4499000B44B0FB58
:10162000F3F30133C3F30B0343F4404379680968D0
:101630001343CB617B681B681B6823F0C0017B6888
:10164000DA697B681B6A1A437B681B680A431A6065
:101650007B681B689B6823F4034323F0FF037A68CD
:1016600011697A68D26811437A6812680B439360F3
:101670007B681B68DB6823F0FF017B685A697B6825
:101680009B691A437B681B680A43DA607B681B68A6
:101690001A687B681B6842F001021A607B680022AE
:1016A0001A647B68202283F83D207B6800221A633D
:1016B0007B68002283F83E20002318461037BD4681
:1016C00080BD00BFA08601007F841E00FF083D0092
:1016D00083DE1B43D34D621080B588B002AFF86043
:1016E0007A601A460B467B8113463B81FFF730FB3D
:1016F0007861FB6893F83D30DBB2202B40F0E0804E
:101700007B690093192301227049F86800F064F99D
:101710000346002B01D00223D3E0FB6893F83C3052
:10172000012B01D10223CCE0FB68012283F83C208D
:10173000FB681B681B6803F00103012B07D0FB68E3
:101740001B681A68FB681B6842F001021A60FB689C
:101750001B681A68FB681B6822F400621A60FB6849
:10176000212283F83D20FB68102283F83E20FB688D
:1017700000221A64FB687A685A62FB683A895A85C3
:10178000FB685B8D9AB2FB681A85FB68504ADA6287
:1017900079897B693A6AF86800F09CF80346002B67
:1017A00001D001238DE000233B61FB681B685B696E
:1017B0003B61FB681B689B693B613B6966E07A693A
:1017C000396AF86800F022FA0346002B0DD0FB6856
:1017D0001B6C042B07D1FB681B681A68FB681B682D
:1017E00042F400721A6001236BE0FB685B6A1A78AE
:1017F000FB681B681A61FB685B6A5A1CFB685A62CB
:10180000FB685B8D9BB2013B9AB2FB685A85FB6813
:101810001B8D013B9AB2FB681A85FB681B685B69EC
:1018200003F00403042B1BD1FB681B8D002B17D086
:10183000FB685B6A1A78FB681B681A61FB685B6A65
:101840005A1CFB685A62FB685B8D9BB2013B9AB2E3
:10185000FB685A85FB681B8D013B9AB2FB681A85B1
:101860007A69396AF86800F019FA0346002B0DD03E
:10187000FB681B6C042B07D1FB681B681A68FB68AC
:101880001B6842F400721A6001231AE0FB681B8D8A
:10189000002B94D1FB681B681A68FB681B6842F434
:1018A00000721A60FB68202283F83D20FB6800224A
:1018B00083F83E20FB68002283F83C20002300E0F0
:1018C000022318461837BD4680BD00BF0200100035
:1018D0000000FFFF80B588B002AFF8607A603B601F
:1018E0000B467B81FB68DB6A7B617B69082B06D03A
:1018F0007B69012B03D07B6913F5803F08D1FB681E
:101900001B681A68FB681B6842F480721A600BE05F
:10191000FB681B6B122B07D1FB681B681A68FB68FE
:101920001B6842F480721A603B6800937B68002257
:101930004FF00111F86800F04FF80346002B0DD06E
:10194000FB681B681B6803F48073B3F5807F03D1C9
:10195000FB684FF400721A64032335E0FB681B69CF
:10196000B3F5804F08D17B89DBB21A46FB681B6850
:1019700002F0FE021A611BE07B89DB11DBB203F08F
:101980000603DBB263F00F03DAB2FB681B681A616F
:101990003B687A680E49F86800F098F80346002B17
:1019A00001D0012310E07B89DAB2FB681B681A6161
:1019B0003B687A680749F86800F088F80346002B0E
:1019C00001D0012300E0002318461837BD4680BD32
:1019D000080001000200010080B584B000AFF8608B
:1019E000B9603B601346FB7148E03B68B3F1FF3FD1
:1019F00044D0FFF7ADF90246BB69D31A3A689A4260
:101A000002D33B68002B39D1BB681B0CDBB2012B26
:101A10000DD1FB681B685B69DA43BB6813409BB25E
:101A2000002B0CBF01230023DBB21A460CE0FB683D
:101A30001B689B69DA43BB6813409BB2002B0CBF49
:101A400001230023DBB21A46FB799A4216D1FB68C8
:101A500000221A63FB68202283F83D20FB680022E5
:101A600083F83E20FB681B6C43F02002FB681A647D
:101A7000FB68002283F83C20012323E0BB681B0C99
:101A8000DBB2012B0DD1FB681B685B69DA43BB68D5
:101A900013409BB2002B0CBF01230023DBB21A467C
:101AA0000CE0FB681B689B69DA43BB6813409BB280
:101AB000002B0CBF01230023DBB21A46FB799A42AC
:101AC00093D0002318461037BD4680BD80B584B042
:101AD00000AFF860B9607A603B6071E0FB681B683A
:101AE0005B6903F48063B3F5806F23D1FB681B68E7
:101AF0001A68FB681B6842F400721A60FB681B6876
:101B00006FF480625A61FB6800221A63FB6820222E
:101B100083F83D20FB68002283F83E20FB681B6CA5
:101B200043F00402FB681A64FB68002283F83C203F
:101B3000012367E07B68B3F1FF3F41D0FFF708F96D
:101B400002463B68D31A7A689A4202D37B68002B1C
:101B500036D1BB681B0CDBB2012B0CD1FB681B68B8
:101B60005B69DA43BB6813409BB2002B14BF0123AF
:101B70000023DBB20BE0FB681B689B69DA43BB68A0
:101B800013409BB2002B14BF01230023DBB2002BB8
:101B900016D0FB6800221A63FB68202283F83D20E0
:101BA000FB68002283F83E20FB681B6C43F0200298
:101BB000FB681A64FB68002283F83C20012321E0C3
:101BC000BB681B0CDBB2012B0CD1FB681B685B698B
:101BD000DA43BB6813409BB2002B14BF01230023E0
:101BE000DBB20BE0FB681B689B69DA43BB68134000
:101BF0009BB2002B14BF01230023DBB2002B7FF428
:101C00006DAF002318461037BD4680BD80B584B047
:101C100000AFF860B9607A6034E0F86800F086F8E8
:101C20000346002B01D0012334E0BB68B3F1FF3F32
:101C300028D0FFF78DF802467B68D31ABA689A421B
:101C400002D3BB68002B1DD1FB681B685B6903F0E6
:101C50008003802B16D0FB6800221A63FB682022C9
:101C600083F83D20FB68002283F83E20FB681B6C54
:101C700043F02002FB681A64FB68002283F83C20D2
:101C8000012307E0FB681B685B6903F08003802B7E
:101C9000C3D1002318461037BD4680BD80B584B03F
:101CA00000AFF860B9607A6034E0F86800F03EF8A0
:101CB0000346002B01D0012334E0BB68B3F1FF3FA2
:101CC00028D0FFF745F802467B68D31ABA689A42D3
:101CD00002D3BB68002B1DD1FB681B685B6903F056
:101CE0000403042B16D0FB6800221A63FB68202231
:101CF00083F83D20FB68002283F83E20FB681B6CC4
:101D000043F02002FB681A64FB68002283F83C2041
:101D1000012307E0FB681B685B6903F00403042BE5
:101D2000C3D1002318461037BD4680BD80B483B0B0
:101D300000AF78607B681B685B6903F48063B3F570
:101D4000806F1BD17B681B686FF480625A617B686F
:101D500000221A637B68202283F83D207B680022E2
:101D600083F83E207B681B6C43F004027B681A6496
:101D70007B68002283F83C20012300E00023184602
:101D80000C37BD4680BC704780B586B000AF786028
:101D90007B68002B01D1012372E27B681B6803F092
:101DA0000103002B00F08780924B5B6803F00C036B
:101DB000042B0CD08F4B5B6803F00C03082B12D163
:101DC0008C4B5B6803F48033B3F5803F0BD1894BB8
:101DD0001B6803F40033002B6CD07B685B68002B1E
:101DE00068D101234CE27B685B68B3F5803F06D184
:101DF000804B1B687F4A43F4803313602EE07B687E
:101E00005B68002B0CD17B4B1B687A4A23F4803330
:101E10001360784B1B68774A23F4802313601DE01E
:101E20007B685B68B3F5A02F0CD1724B1B68714ABD
:101E300043F4802313606F4B1B686E4A43F4803376
:101E400013600BE06B4B1B686A4A23F4803313600A
:101E5000684B1B68674A23F4802313607B685B68C8
:101E6000002B13D0FEF774FF386108E0FEF770FF17
:101E700002463B69D31A642B01D9032300E25D4B70
:101E80001B6803F40033002BF0D014E0FEF760FF72
:101E9000386108E0FEF75CFF02463B69D31A642B09
:101EA00001D90323ECE1534B1B6803F40033002BEF
:101EB000F0D100E000BF7B681B6803F00203002B39
:101EC00063D04C4B5B6803F00C03002B0BD0494BE9
:101ED0005B6803F00C03082B1CD1464B5B6803F4D2
:101EE0008033002B16D1434B1B6803F00203002BF9
:101EF00005D07B681B69012B01D00123C0E13D4B5C
:101F00001B6823F0F8027B685B69DB0039491343E7
:101F10000B603AE07B681B69002B20D0364B012216
:101F20001A60FEF715FF386108E0FEF711FF024660
:101F30003B69D31A022B01D90323A1E12D4B1B6866
:101F400003F00203002BF0D02A4B1B6823F0F802A9
:101F50007B685B69DB00274913430B6015E0264B68
:101F600000221A60FEF7F4FE386108E0FEF7F0FE8A
:101F700002463B69D31A022B01D9032380E11D4B92
:101F80001B6803F00203002BF0D17B681B6803F091
:101F90000803002B3AD07B689B69002B19D0174BA4
:101FA00001221A60FEF7D4FE386108E0FEF7D0FE89
:101FB00002463B69D31A022B01D9032360E10D4B82
:101FC0005B6A03F00203002BF0D0012000F0CEFA90
:101FD0001CE00A4B00221A60FEF7BAFE38610FE0DF
:101FE000FEF7B6FE02463B69D31A022B08D903233B
:101FF00046E100BF0010024000004242800442421D
:10200000924B5B6A03F00203002BE9D17B681B68EB
:1020100003F00403002B00F0A6800023FB758B4B1C
:10202000DB6903F08053002B0DD1884BDB69874AB5
:1020300043F08053D361854BDB6903F08053BB6071
:10204000BB680123FB75824B1B6803F48073002B74
:1020500018D17F4B1B687E4A43F480731360FEF7F0
:1020600077FE386108E0FEF773FE02463B69D31A3B
:10207000642B01D9032303E1754B1B6803F48073C0
:10208000002BF0D07B68DB68012B06D16F4B1B6AFD
:102090006E4A43F0010313622DE07B68DB68002B7E
:1020A0000CD16A4B1B6A694A23F001031362674B28
:1020B0001B6A664A23F0040313621CE07B68DB683A
:1020C000052B0CD1614B1B6A604A43F00403136279
:1020D0005E4B1B6A5D4A43F0010313620BE05B4BEE
:1020E0001B6A5A4A23F001031362584B1B6A574A72
:1020F00023F0040313627B68DB68002B15D0FEF726
:1021000027FE38610AE0FEF723FE02463B69D31A38
:1021100041F28832934201D90323B1E04B4B1B6A51
:1021200003F00203002BEED014E0FEF711FE38613D
:102130000AE0FEF70DFE02463B69D31A41F28832EF
:10214000934201D903239BE0404B1B6A03F0020337
:10215000002BEED1FB7D012B05D13C4BDB693B4ACB
:1021600023F08053D3617B68DB69002B00F087800C
:10217000364B5B6803F00C03082B61D07B68DB698E
:10218000022B46D1334B00221A60FEF7E1FD386185
:1021900008E0FEF7DDFD02463B69D31A022B01D9A8
:1021A00003236DE0294B1B6803F00073002BF0D173
:1021B0007B681B6AB3F5803F08D1244B5B6823F42E
:1021C00000327B689B68214913434B601F4B5B685F
:1021D00023F474127B68196A7B685B6A0B431B49A2
:1021E00013434B601B4B01221A60FEF7B1FD3861AF
:1021F00008E0FEF7ADFD02463B69D31A022B01D978
:1022000003233DE0114B1B6803F00073002BF0D05B
:1022100035E0104B00221A60FEF79AFD386108E0A5
:10222000FEF796FD02463B69D31A022B01D9032320
:1022300026E0064B1B6803F00073002BF0D11EE074
:102240007B68DB69012B07D1012319E000100240F4
:1022500000700040600042420B4B5B68FB60FB6813
:1022600003F480327B681B6A9A4206D1FB6803F450
:1022700070127B685B6A9A4201D0012300E0002360
:1022800018461837BD4680BD0010024080B584B0A6
:1022900000AF786039607B68002B01D10123D0E06A
:1022A0006A4B1B6803F007033A689A4210D9674BE0
:1022B0001B6823F0070265493B6813430B60634BBF
:1022C0001B6803F007033A689A4201D00123B8E083
:1022D0007B681B6803F00203002B20D07B681B681F
:1022E00003F00403002B05D0594B5B68584A43F4B4
:1022F000E06353607B681B6803F00803002B05D084
:10230000534B5B68524A43F460535360504B5B68D5
:1023100023F0F0027B689B684D4913434B607B6858
:102320001B6803F00103002B40D07B685B68012B26
:1023300007D1474B1B6803F40033002B15D1012351
:102340007FE07B685B68022B07D1414B1B6803F081
:102350000073002B09D1012373E03D4B1B6803F090
:102360000203002B01D101236BE0394B5B6823F0A2
:1023700003027B685B68364913434B60FEF7E8FC59
:10238000F8600AE0FEF7E4FC0246FB68D31A41F26B
:102390008832934201D9032353E02D4B5B6803F04D
:1023A0000C027B685B689B009A42EBD1274B1B6851
:1023B00003F007033A689A4210D2244B1B6823F0BB
:1023C000070222493B6813430B60204B1B6803F054
:1023D00007033A689A4201D0012332E07B681B6808
:1023E00003F00403002B08D0194B5B6823F4E06270
:1023F0007B68DB68164913434B607B681B6803F0FE
:102400000803002B09D0124B5B6823F460527B68F1
:102410001B69DB000E4913434B6000F021F80246B4
:102420000B4B5B681B0903F00F030A49CB5C22FAD4
:1024300003F3094A1360094B1B681846FEF746FC74
:10244000002318461037BD4680BD00BF0020024063
:1024500000100240E8630008980100209C01002061
:1024600080B487B000AF0023FB600023BB60002373
:102470007B6100237B6000233B611E4B5B68FB603C
:10248000FB6803F00C03042B02D0082B03D027E0D9
:10249000194B3B6127E0FB689B0C03F00F03174AC5
:1024A000D35C7B60FB6803F48033002B10D0114BAE
:1024B0005B685B0C03F00103114AD35CBB607B6873
:1024C0000D4A03FB02F2BB68B2FBF3F37B6104E04D
:1024D0007B680C4A02FB03F37B617B693B6102E092
:1024E000054B3B6100BF3B6918461C37BD4680BCAD
:1024F000704700BF0010024000127A00006400081C
:102500001064000800093D0080B400AF024B1B6856
:102510001846BD4680BC70479801002080B500AFCA
:10252000FFF7F2FF0246054B5B681B0A03F0070347
:102530000349CB5C22FA03F3184680BD0010024029
:10254000F863000880B500AFFFF7DEFF0246054BD9
:102550005B68DB0A03F007030349CB5C22FA03F351
:10256000184680BD00100240F863000880B485B0B2
:1025700000AF78600A4B1B680A4AA2FB03235B0A80
:102580007A6802FB03F3FB6000BFFB685A1EFA6027
:10259000002BF9D100BF00BF1437BD4680BC704787
:1025A00098010020D34D621080B582B000AF7860F2
:1025B0007B68002B01D1012342E07B6893F8413016
:1025C000DBB2002B06D17B68002283F840207868BC
:1025D000FEF7B4FA7B68242283F841207B681B68ED
:1025E000DA687B681B6822F40052DA60786800F0D1
:1025F000D5FC7B681B681A697B681B6822F49042D3
:102600001A617B681B685A697B681B6822F02A0282
:102610005A617B681B68DA687B681B6842F4005269
:10262000DA607B6800225A647B68202283F84120AC
:102630007B68202283F842207B6800225A630023B3
:1026400018460837BD4680BD80B584B000AFF8603D
:10265000B9601346FB80FB6893F84230DBB2202B55
:1026600012D1BB68002B02D0FB88002B01D10123C3
:102670000BE0FB6800221A63FB881A46B968F86809
:1026800000F0B7FA034600E0022318461037BD46B3
:1026900080BD000080B5BAB000AF78607B681B6871
:1026A0001B68C7F8E4307B681B68DB68C7F8E0305C
:1026B0007B681B685B69C7F8DC300023C7F8D8303B
:1026C0000023C7F8D430D7F8E43003F00F03C7F87D
:1026D000D830D7F8D830002B0FD1D7F8E43003F03A
:1026E0002003002B09D0D7F8E03003F02003002BA3
:1026F00003D0786800F093FB5BE2D7F8D830002B6A
:1027000000F0DE80D7F8DC3003F00103002B06D1A7
:10271000D7F8E03003F49073002B00F0D180D7F8A5
:10272000E43003F00103002B0BD0D7F8E03003F4C2
:102730008073002B05D07B685B6C43F001027B68E3
:102740005A64D7F8E43003F00403002B0BD0D7F819
:10275000DC3003F00103002B05D07B685B6C43F099
:1027600002027B685A64D7F8E43003F00203002BBE
:102770000BD0D7F8DC3003F00103002B05D07B68C9
:102780005B6C43F004027B685A64D7F8E43003F0D2
:102790000803002B11D0D7F8E03003F02003002B02
:1027A00005D1D7F8DC3003F00103002B05D07B689E
:1027B0005B6C43F008027B685A647B685B6C002B9F
:1027C00000F0F281D7F8E43003F02003002B08D0AA
:1027D000D7F8E03003F02003002B02D0786800F037
:1027E0001EFB7B681B685B6903F04003002B14BF72
:1027F00001230023DBB2C7F8D4307B685B6C03F0A5
:102800000803002B03D1D7F8D430002B4FD07868C1
:1028100000F028FA7B681B685B6903F04003002B1B
:1028200041D07B681B681433C7F89C30D7F89C30C4
:1028300053E8003FC7F89830D7F8983023F04003AA
:10284000C7F8D0307B681B681433D7F8D020C7F89E
:10285000A820C7F8A430D7F8A410D7F8A82041E8DA
:102860000023C7F8A030D7F8A030002BD9D17B685F
:10287000DB6B002B13D07B68DB6B7E4A5A637B6873
:10288000DB6B1846FEF7B6FB0346002B16D07B68C1
:10289000DB6B5B6B7A68D26B104698470EE078680A
:1028A00000F093F90AE0786800F08FF906E07868A4
:1028B00000F08BF97B6800225A6475E100BF73E178
:1028C0007B681B6B012B40F04F81D7F8E43003F09D
:1028D0001003002B00F04881D7F8E03003F010031C
:1028E000002B00F041810023BB607B681B681B68E4
:1028F000BB607B681B685B68BB60BB687B681B68F0
:102900005B6903F04003002B00F0B6807B68DB6B53
:102910001B685B68A7F8BE30B7F8BE30002B00F02C
:1029200045817B689B8DB7F8BE209A4280F03E813E
:102930007B68B7F8BE20DA857B68DB6B9B69202B50
:1029400000F088807B681B680C33C7F88830D7F8A4
:10295000883053E8003FC7F88430D7F8843023F438
:102960008073C7F8B8307B681B680C33D7F8B82081
:10297000C7F89420C7F89030D7F89010D7F8942073
:1029800041E80023C7F88C30D7F88C30002BD9D120
:102990007B681B6814337B677B6F53E8003F3B67A2
:1029A0003B6F23F00103C7F8B4307B681B68143316
:1029B000D7F8B420C7F88020FB67F96FD7F88020DC
:1029C00041E80023BB67BB6F002BE1D17B681B682C
:1029D00014333B663B6E53E8003FFB65FB6D23F011
:1029E0004003C7F8B0307B681B681433D7F8B020B9
:1029F000FA66BB66B96EFA6E41E800237B667B6EB1
:102A0000002BE3D17B68202283F842207B680022E0
:102A10001A637B681B680C33FB64FB6C53E8003F54
:102A2000BB64BB6C23F01003C7F8AC307B681B6839
:102A30000C33D7F8AC20BA657B65796DBA6D41E887
:102A400000233B653B6D002BE3D17B68DB6B1846B5
:102A5000FEF795FA7B6802225A637B689A8D7B6841
:102A6000DB8D9BB2D31A9BB21946786800F0B6F89A
:102A70009CE000BF292D00087B689A8D7B68DB8D68
:102A80009BB2D31AA7F8CE307B68DB8D9BB2002BAC
:102A900000F08E80B7F8CE30002B00F089807B6884
:102AA0001B680C33BB63BB6B53E8003F7B637B6BE2
:102AB00023F49073C7F8C8307B681B680C33D7F8D1
:102AC000C8207A643B64396C7A6C41E80023FB636C
:102AD000FB6B002BE3D17B681B6814337B627B6A42
:102AE00053E8003F3B623B6A23F00103C7F8C43060
:102AF0007B681B681433D7F8C4203A63FB62F96A19
:102B00003A6B41E80023BB62BB6A002BE3D17B68D0
:102B1000202283F842207B6800221A637B681B68AE
:102B20000C333B613B6953E8003FFB60FB6823F0DB
:102B30001003C7F8C0307B681B680C33D7F8C0207F
:102B4000FA61BB61B969FA6941E800237B617B697D
:102B5000002BE3D17B6802225A63B7F8CE301946C6
:102B6000786800F03BF823E0D7F8E43003F0800306
:102B7000002B09D0D7F8E03003F08003002B03D0FE
:102B8000786800F0E5F814E0D7F8E43003F040038B
:102B9000002B0ED0D7F8E03003F04003002B08D014
:102BA000786800F024F904E000BF02E000BF00E014
:102BB00000BFE837BD4680BD80B483B000AF786009
:102BC00000BF0C37BD4680BC704780B483B000AFF7
:102BD000786000BF0C37BD4680BC704780B483B0BE
:102BE00000AF78600B467B8000BF0C37BD4680BCD1
:102BF000704780B485B000AFF860B9601346FB80C1
:102C0000FB68BA689A62FB68FA889A85FB68FA885A
:102C1000DA85FB6800225A64FB68222283F842208E
:102C2000FB681B69002B07D0FB681B68DA68FB6830
:102C30001B6842F48072DA60FB681B685A69FB68A3
:102C40001B6842F001025A61FB681B68DA68FB6886
:102C50001B6842F02002DA60002318461437BD4694
:102C600080BC704780B495B000AF78607B681B680B
:102C70000C337B637B6B53E8003F3B633B6B23F47C
:102C80009073FB647B681B680C33FA6C3A64FB63DB
:102C9000F96B3A6C41E80023BB63BB6B002BE5D1B9
:102CA0007B681B6814333B623B6A53E8003FFB615F
:102CB000FB6923F00103BB647B681B681433BA6CA7
:102CC000FA62BB62B96AFA6A41E800237B627B6AF6
:102CD000002BE5D17B681B6B012B19D17B681B682E
:102CE0000C33FB60FB6853E8003FBB60BB6823F01C
:102CF00010037B647B681B680C337A6CBA617B6160
:102D00007969BA6941E800233B613B69002BE5D151
:102D10007B68202283F842207B6800221A6300BF70
:102D20005437BD4680BC704780B584B000AF786032
:102D30007B685B6AFB60FB680022DA85FB68002227
:102D4000DA84F868FFF741FF00BF1037BD4680BD49
:102D500080B485B000AF78607B6893F84130DBB217
:102D6000212B3ED17B689B68B3F5805F14D17B68D3
:102D70001B69002B10D17B681B6AFB60FB681B88FA
:102D80001A467B681B68C2F308025A607B681B6A9C
:102D90009A1C7B681A6208E07B681B6A591C7A6877
:102DA00011621A787B681B685A607B68DB8C9BB267
:102DB000013B9BB27A681946D184002B0FD17B6806
:102DC0001B68DA687B681B6822F08002DA607B6827
:102DD0001B68DA687B681B6842F04002DA600023F7
:102DE00000E0022318461437BD4680BC704780B50A
:102DF00082B000AF78607B681B68DA687B681B680C
:102E000022F04002DA607B68202283F84120786853
:102E1000FFF7D2FE002318460837BD4680BD80B5B7
:102E20008CB000AF78607B6893F84230DBB2222B25
:102E300040F0AE807B689B68B3F5805F17D17B68FC
:102E40001B69002B13D10023FB627B689B6ABB626A
:102E50007B681B685B689BB2C3F308039AB2BB6ACA
:102E60001A807B689B6A9A1C7B689A6226E07B6862
:102E70009B6AFB620023BB627B689B68B3F5805F43
:102E800007D07B689B68002B0AD17B681B69002BED
:102E900006D17B681B685B68DAB2FB6A1A7008E0CF
:102EA0007B681B685B68DBB203F07F03DAB2FB6A06
:102EB0001A707B689B6A5A1C7B689A627B68DB8D00
:102EC0009BB2013B9BB27A681946D185002B5DD13C
:102ED0007B681B68DA687B681B6822F02002DA6076
:102EE0007B681B68DA687B681B6822F48072DA6092
:102EF0007B681B685A697B681B6822F001025A6173
:102F00007B68202283F842207B6800225A637B681A
:102F10001B6B012B35D17B6800221A637B681B6811
:102F20000C337B617B6953E8003F3B613B6923F0D5
:102F300010037B627B681B680C337A6A3A62FB6120
:102F4000F9693A6A41E80023BB61BB69002BE5D10E
:102F50007B681B681B6803F01003102B0AD1002349
:102F6000FB607B681B681B68FB607B681B685B6899
:102F7000FB60FB687B689B8D19467868FFF72EFE27
:102F800002E07868FDF7ECF8002302E0002300E09F
:102F9000022318463037BD4680BD000080B584B09E
:102FA00000AF78607B681B681B6923F440517B6825
:102FB000DA687B681B680A431A617B689A687B68D9
:102FC0001B691A437B685B691343BB607B681B68A2
:102FD000DB6823F4B05323F00C037A681268B968F5
:102FE0000B43D3607B681B685B6923F440717B688B
:102FF0009A697B681B680A435A617B681B682C4A84
:10300000934203D1FFF79EFAF86002E0FFF786FAD9
:10301000F860FA6813469B0013449A001A447B68D0
:103020005B689B00B2FBF3F3224AA2FB03235B091C
:103030001901FA6813469B0013449A001A447B68EE
:103040005B689B00B2FBF3F21A4BA3FB02035B0924
:10305000642000FB03F3D31A1B013233154AA2FB91
:1030600003235B0903F0F0031944FA6813469B003D
:1030700013449A001A447B685B689B00B2FBF3F22E
:103080000C4BA3FB02035B09642000FB03F3D31A80
:103090001B013233074AA2FB03235B0903F00F0233
:1030A0007B681B680A449A6000BF1037BD4680BD2C
:1030B000003801401F85EB5180B485B000AFEFF3BD
:1030C0000583BB60BB68002B0FD1EFF310837B60DF
:1030D0007B68002B09D1104B1B68022B09D1EFF341
:1030E00011833B603B68002B03D06FF00503FB604E
:1030F0000CE0094B1B68002B05D1074B01221A601D
:103100000023FB6002E04FF0FF33FB60FB681846D2
:103110001437BD4680BC7047A806002080B584B037
:1031200000AFEFF30583BB60BB68002B0FD1EFF35B
:1031300010837B607B68002B09D1114B1B68022B2D
:1031400009D1EFF311833B603B68002B03D06FF094
:103150000503FB600EE00A4B1B68012B07D1084BEF
:1031600002221A6001F0BCFA0023FB6002E04FF07B
:10317000FF33FB60FB6818461037BD4680BD00BFBB
:10318000A806002080B592B004AFF860B9607A60FC
:1031900000237B61EFF305837B627B6A002B40F0A9
:1031A0009480EFF310833B623B6A002B40F08D80EC
:1031B000484B1B68022B06D1EFF31183FB61FB69BF
:1031C000002B40F08280FB68002B7ED080233B6385
:1031D0001823FB620023FB7607F11B037B634FF090
:1031E000FF33BB627B68002B45D07B681B68002BDC
:1031F00002D07B681B687B637B689B69002B02D0D5
:103200007B689B69FB62FB6A002B08D0FB6A382B4A
:1032100005D87B685B6803F00103002B01D0002315
:1032200054E07B685B69002B03D07B685B699B087B
:103230003B637B689B68002B0ED07B68DB685B2B55
:103240000AD97B681B69002B06D07B685B69002B61
:1032500002D00123BB6210E07B689B68002B0CD17D
:103260007B68DB68002B08D17B681B69002B04D1CD
:103270000023BB6201E00023BB62BB6A012B10D1BB
:103280007B681B697A68926802920193FB6A0093DB
:10329000BB683A6B796BF86801F050F803467B61C4
:1032A00013E0BB6A002B10D13B6B9AB207F11403F9
:1032B0000193FB6A0093BB68796BF86801F09DF895
:1032C0000346012B01D000237B617B691846383708
:1032D000BD4680BDA806002080B586B000AF7860EE
:1032E000EFF305833B613B69002B0FD1EFF31083B4
:1032F000FB60FB68002B09D10D4B1B68022B09D129
:10330000EFF31183BB60BB68002B03D06FF00503A4
:103310007B6107E000237B617B68002B02D078682B
:1033200001F0A8F97B6918461837BD4680BD00BF7B
:10333000A806002080B58CB002AFF860B9607A6052
:1033400000237B62EFF30583BB61BB69002B6FD168
:10335000EFF310837B617B69002B69D1374B1B68CE
:10336000022B05D1EFF311833B613B69002B5FD149
:10337000FB68002B5CD0BB68002B59D04FF0FF33AB
:103380003B627B68002B29D07B689B68002B12D0A6
:103390007B68DB684F2B0ED97B681B69002B0AD03A
:1033A0007B685A69FB68B96801FB03F39A4202D350
:1033B00001233B6214E07B689B68002B10D17B6883
:1033C000DB68002B0CD17B681B69002B08D17B6864
:1033D0005B69002B04D100233B6201E000233B62C8
:1033E0003B6A012B0BD17B681A697B689B680021C3
:1033F0000091B968F86800F055FA786208E03B6A15
:10340000002B05D10022B968F86800F0C7FA78628D
:103410007B6A002B0CD07B68002B03D07B681B6879
:10342000FB6101E00023FB61F969786A00F02AFF83
:103430007B6A18462837BD4680BD00BFA80600201D
:1034400080B58AB000AFF860B9603B601346FB718D
:10345000FB683B6200237B62EFF30583FB61FB6942
:10346000002B0FD1EFF31083BB61BB69002B09D197
:103470002B4B1B68022B2ED1EFF311837B617B69F1
:10348000002B28D03B6A002B05D0BB68002B02D054
:103490003B68002B03D06FF003037B6239E000230D
:1034A0003B6107F110020023B968386A00F0DAFBCB
:1034B0000346012B03D06FF002037B6229E03B69D6
:1034C000002B26D0174B4FF080521A60BFF34F8F5E
:1034D000BFF36F8F1DE03B6A002B02D0BB68002B4F
:1034E00003D16FF003037B6214E000233A68B968EC
:1034F000386A00F0B5FA0346012B0BD03B68002B6D
:1035000003D06FF001037B6204E06FF002037B6283
:1035100000E000BF7B6A18462837BD4680BD00BF6B
:10352000A806002004ED00E080B58AB000AFF86086
:10353000B9607A603B60FB683B6200237B62EFF31B
:103540000583FB61FB69002B0FD1EFF31083BB6197
:10355000BB69002B09D12B4B1B68022B2ED1EFF33B
:1035600011837B617B69002B28D03B6A002B05D03F
:10357000BB68002B02D03B68002B03D06FF0030325
:103580007B6238E000233B6107F110031A46B968FB
:10359000386A00F0E5FC0346012B03D06FF002030C
:1035A0007B6228E03B69002B25D0174B4FF08052FF
:1035B0001A60BFF34F8FBFF36F8F1CE03B6A002B85
:1035C00002D0BB68002B03D16FF003037B6213E0D2
:1035D0003A68B968386A00F0E1FB0346012B0BD06A
:1035E0003B68002B03D06FF001037B6204E06FF0B7
:1035F00002037B6200E000BF7B6A18462837BD46A5
:1036000080BD00BFA806002004ED00E080B485B0B6
:1036100000AFF860B9607A60FB68064A1A60BB6860
:10362000054A1A607B6880221A6000BF1437BD46C5
:1036300080BC7047AC0600200807002080B485B02D
:1036400000AFF860B9607A60FB68074A1A60BB682F
:10365000064A1A607B684FF480721A6000BF143704
:10366000BD4680BC704700BF0809002064090020E7
:1036700080B483B000AF78607B6803F108027B6898
:103680005A607B684FF0FF329A607B6803F1080252
:103690007B68DA607B6803F108027B681A617B68EB
:1036A00000221A6000BF0C37BD4680BC704780B452
:1036B00083B000AF78607B6800221A6100BF0C37CE
:1036C000BD4680BC704780B485B000AF786039607B
:1036D0007B685B68FB603B68FA685A60FB689A68C5
:1036E0003B689A60FB689B683A685A60FB683A6876
:1036F0009A603B687A681A617B681B685A1C7B6811
:103700001A6000BF1437BD4680BC704780B485B0D6
:1037100000AF786039603B681B68BB60BB68B3F181
:10372000FF3F03D17B681B69FB600CE07B680833BB
:10373000FB6002E0FB685B68FB60FB685B681B6822
:10374000BA689A42F6D2FB685A683B685A603B688E
:103750005B683A689A603B68FA689A60FB683A6806
:103760005A603B687A681A617B681B685A1C7B68E0
:103770001A6000BF1437BD4680BC704780B485B066
:1037800000AF78607B681B69FB607B685B687A6868
:1037900092689A607B689B687A6852685A60FB6896
:1037A0005B687A689A4203D17B689A68FB685A60C2
:1037B0007B6800221A61FB681B685A1EFB681A604E
:1037C000FB681B6818461437BD4680BC7047000074
:1037D00080B584B000AF786039607B68FB60FB68BF
:1037E000002B0BD14FF0500383F31188BFF36F8F81
:1037F000BFF34F8FBB6000BF00BFFDE702F0B6F81C
:10380000FB681A68FB68DB6BF968096C01FB03F362
:103810001A44FB685A60FB6800229A63FB681A68C6
:10382000FB689A60FB681A68FB68DB6B013BF96810
:10383000096C01FB03F31A44FB68DA60FB68FF22A2
:1038400083F84420FB68FF2283F845203B68002B67
:1038500014D1FB681B69002B1AD0FB681033184683
:1038600001F0D0F90346002B12D00D4B4FF08052DF
:103870001A60BFF34F8FBFF36F8F09E0FB681033FF
:103880001846FFF7F5FEFB6824331846FFF7F0FEF5
:1038900002F09CF8012318461037BD4680BD00BFDA
:1038A00004ED00E080B58EB002AFF860B9607A60D8
:1038B0003B60FB68002B0BD14FF0500383F3118862
:1038C000BFF36F8FBFF34F8FBB6200BF00BFFDE739
:1038D0003B68002B0BD14FF0500383F31188BFF3EB
:1038E0006F8FBFF34F8F7B6200BF00BFFDE77B6828
:1038F000002B02D0BB68002B01D0012300E0002385
:10390000002B0BD14FF0500383F31188BFF36F8F5F
:10391000BFF34F8F3B6200BF00BFFDE77B68002B0A
:1039200002D1BB68002B01D1012300E00023002B52
:103930000BD14FF0500383F31188BFF36F8FBFF3A8
:103940004F8FFB6100BF00BFFDE750237B617B69A8
:10395000502B0BD04FF0500383F31188BFF36F8FC0
:10396000BFF34F8FBB6100BF00BFFDE73B68FB6249
:10397000FB6A002B0DD0FB6A012283F8462097F8E2
:103980003820FB6A009313467A68B968F86800F03B
:1039900044F8FB6A18463037BD4680BD80B58AB012
:1039A00002AFF860B9601346FB71FB68002B0BD1C6
:1039B0004FF0500383F31188BFF36F8FBFF34F8F26
:1039C0003B6100BF00BFFDE7BB68002B02D10023B5
:1039D000FB6104E0FB68BA6802FB03F3FB61FB696F
:1039E0005033184602F0C4F8B861BB69002B0FD001
:1039F000BB6950337B61BB69002283F84620FA79AA
:103A0000BB69009313467A69B968F86800F005F855
:103A1000BB6918462037BD4680BD80B584B000AF75
:103A2000F860B9607A60FB70BB68002B03D1BB699A
:103A3000BA691A6002E0BB697A681A60BB69FA6801
:103A4000DA63BB69BA681A640121B869FFF7C0FE7E
:103A5000BB69FA7883F84C2000BF1037BD4680BDA3
:103A600080B58EB000AFF860B9607A603B6000232B
:103A70007B63FB683B633B6B002B0BD14FF0500328
:103A800083F31188BFF36F8FBFF34F8FBB6200BF0B
:103A900000BFFDE7BB68002B03D13B6B1B6C002B09
:103AA00001D1012300E00023002B0BD14FF0500384
:103AB00083F31188BFF36F8FBFF34F8F7B6200BF1B
:103AC00000BFFDE73B68022B03D13B6BDB6B012B97
:103AD00001D1012300E00023002B0BD14FF0500354
:103AE00083F31188BFF36F8FBFF34F8F3B6200BF2B
:103AF00000BFFDE701F04AFA0346002B02D17B68C4
:103B0000002B01D1012300E00023002B0BD14FF04B
:103B1000500383F31188BFF36F8FBFF34F8FFB61A7
:103B200000BF00BFFDE701F021FF3B6B9A6B3B6BD1
:103B3000DB6B9A4202D33B68022B29D13A68B96801
:103B4000386B00F08FFAF8623B6B5B6A002B10D089
:103B50003B6B2433184601F055F80346002B13D075
:103B60003F4B4FF080521A60BFF34F8FBFF36F8F00
:103B70000AE0FB6A002B07D0394B4FF080521A60E5
:103B8000BFF34F8FBFF36F8F01F020FF012363E07E
:103B90007B68002B03D101F019FF00235CE07B6BF5
:103BA000002B06D107F11403184601F08FF801230A
:103BB0007B6301F00BFF00F0FBFD01F0D7FE3B6BD8
:103BC00093F844305BB2B3F1FF3F03D13B6B00226B
:103BD00083F844203B6B93F845305BB2B3F1FF3F71
:103BE00003D13B6B002283F8452001F0EFFE3A1D24
:103BF00007F114031146184601F07EF80346002B26
:103C000024D1386B00F026FB0346002B18D03B6B09
:103C100010337A681146184600F0A2FF386B00F0A6
:103C2000B1FA00F0D3FD0346002B7FF47CAF0C4BC0
:103C30004FF080521A60BFF34F8FBFF36F8F72E760
:103C4000386B00F09FFA00F0C1FD6CE7386B00F0B4
:103C500099FA00F0BBFD002318463837BD4680BDF9
:103C600004ED00E080B58EB000AFF860B9607A6016
:103C70003B60FB683B633B6B002B0BD14FF0500369
:103C800083F31188BFF36F8FBFF34F8F7B6200BF49
:103C900000BFFDE7BB68002B03D13B6B1B6C002B07
:103CA00001D1012300E00023002B0BD14FF0500382
:103CB00083F31188BFF36F8FBFF34F8F3B6200BF59
:103CC00000BFFDE73B68022B03D13B6BDB6B012B95
:103CD00001D1012300E00023002B0BD14FF0500352
:103CE00083F31188BFF36F8FBFF34F8FFB6100BF6A
:103CF00000BFFDE701F0FCFEEFF311824FF050032F
:103D000083F31188BFF36F8FBFF34F8FBA617B616D
:103D1000BB69FB623B6B9A6B3B6BDB6B9A4202D3DA
:103D20003B68022B2CD13B6B93F8453087F82B3046
:103D30003A68B968386B00F095F997F92B30B3F110
:103D4000FF3F12D13B6B5B6A002B16D03B6B2433D9
:103D5000184600F057FF0346002B0ED07B68002B5F
:103D60000BD07B6801221A6007E097F82B300133F3
:103D7000DBB25AB23B6B83F8452001237B6301E041
:103D800000237B63FB6A3B613B6983F3118800BFBF
:103D90007B6B18463837BD4680BD000080B58CB0BF
:103DA00000AFF860B9607A600023FB62FB68BB6219
:103DB000BB6A002B0BD14FF0500383F31188BFF384
:103DC0006F8FBFF34F8F3B6200BF00BFFDE7BB6843
:103DD000002B03D1BB6A1B6C002B01D1012300E037
:103DE0000023002B0BD14FF0500383F31188BFF356
:103DF0006F8FBFF34F8FFB6100BF00BFFDE701F086
:103E0000C5F80346002B02D17B68002B01D10123AA
:103E100000E00023002B0BD14FF0500383F31188F7
:103E2000BFF36F8FBFF34F8FBB6100BF00BFFDE7D4
:103E300001F09CFDBB6A9B6B7B627B6A002B1FD0F1
:103E4000B968B86A00F078F97B6A5A1EBB6A9A634F
:103E5000BB6A1B69002B0FD0BB6A1033184600F0F9
:103E6000D1FE0346002B07D03C4B4FF080521A6026
:103E7000BFF34F8FBFF36F8F01F0A8FD012369E0FF
:103E80007B68002B03D101F0A1FD002362E0FB6AF7
:103E9000002B06D107F11003184600F017FF01238D
:103EA000FB6201F093FD00F083FC01F05FFDBB6A53
:103EB00093F844305BB2B3F1FF3F03D1BB6A0022F9
:103EC00083F84420BB6A93F845305BB2B3F1FF3FFF
:103ED00003D1BB6A002283F8452001F077FD3A1D2B
:103EE00007F110031146184600F006FF0346002BA9
:103EF00023D1B86A00F098F90346002B17D0BB6AAB
:103F000024337A681146184600F02AFEB86A00F099
:103F100039F900F05BFC0346002B89D10F4B4FF0C1
:103F200080521A60BFF34F8FBFF36F8F80E7B86A7C
:103F300000F028F900F04AFC7AE7B86A00F022F9AC
:103F400000F044FCB86A00F06FF90346002B3FF420
:103F50006FAF002318463037BD4680BD04ED00E04A
:103F600080B58EB000AFF860B9607A60FB683B63E3
:103F70003B6B002B0BD14FF0500383F31188BFF341
:103F80006F8FBFF34F8F3B6200BF00BFFDE7BB6881
:103F9000002B03D13B6B1B6C002B01D1012300E0F4
:103FA0000023002B0BD14FF0500383F31188BFF394
:103FB0006F8FBFF34F8FFB6100BF00BFFDE701F0C4
:103FC00097FDEFF311824FF0500383F31188BFF395
:103FD0006F8FBFF34F8FBA617B61BB69FB623B6B35
:103FE0009B6BBB62BB6A002B2FD03B6B93F84430BA
:103FF00087F82730B968386B00F09EF8BB6A5A1E04
:104000003B6B9A6397F92730B3F1FF3F12D13B6BBB
:104010001B69002B16D03B6B1033184600F0F2FDE5
:104020000346002B0ED07B68002B0BD07B6801224F
:104030001A6007E097F827300133DBB25AB23B6BC6
:1040400083F8442001237B6301E000237B63FB6A48
:104050003B613B6983F3118800BF7B6B184638379F
:10406000BD4680BD80B586B000AFF860B9607A60AB
:1040700000237B61FB689B6B3B61FB681B6C002B27
:104080000DD1FB681B68002B4DD1FB685B6818469F
:1040900000F09AFF7861FB6800225A6043E07B6879
:1040A000002B19D1FB689868FB681B6C1A46B9682D
:1040B00001F068FFFB689A68FB681B6C1A44FB6898
:1040C0009A60FB689A68FB685B689A422BD3FB682E
:1040D0001A68FB689A6026E0FB68D868FB681B6C6E
:1040E0001A46B96801F04EFFFB68DA68FB681B6C82
:1040F0005B421A44FB68DA60FB68DA68FB681B689D
:104100009A4207D2FB685A68FB681B6C5B421A44F0
:10411000FB68DA607B68022B05D13B69002B02D07B
:104120003B69013B3B613B695A1CFB689A637B69B5
:1041300018461837BD4680BD80B582B000AF7860A4
:1041400039607B681B6C002B18D07B68DA687B6851
:104150001B6C1A447B68DA607B68DA687B685B6892
:104160009A4203D37B681A687B68DA607B68D968F7
:104170007B681B6C1A46386801F004FF00BF0837E3
:10418000BD4680BD80B584B000AF786001F0EEFB25
:104190007B6893F84530FB7311E07B685B6A002B0A
:1041A00012D07B682433184600F02CFD0346002B08
:1041B00001D000F005FEFB7B013BDBB2FB7397F9FE
:1041C0000F30002BE9DC00E000BF7B68FF2283F8A2
:1041D000452001F0FBFB01F0C9FB7B6893F84430FC
:1041E000BB7311E07B681B69002B12D07B68103316
:1041F000184600F007FD0346002B01D000F0E0FD5B
:10420000BB7B013BDBB2BB7397F90E30002BE9DCC3
:1042100000E000BF7B68FF2283F8442001F0D6FB5A
:1042200000BF1037BD4680BD80B584B000AF786058
:1042300001F09CFB7B689B6B002B02D10123FB6090
:1042400001E00023FB6001F0C1FBFB68184610375A
:10425000BD4680BD80B584B000AF786001F086FBBC
:104260007B689A6B7B68DB6B9A4202D10123FB600F
:1042700001E00023FB6001F0A9FBFB681846103742
:10428000BD4680BD80B485B000AF78603960002342
:10429000FB6014E00E4AFB6852F83330002B0BD160
:1042A0000B49FB683A6841F83320094AFB68DB0098
:1042B00013447A685A6006E0FB680133FB60FB68D0
:1042C000072BE7D900BF00BF1437BD4680BC70473D
:1042D000640D002080B586B000AFF860B9607A60E8
:1042E000FB687B6101F042FB7B6993F844305BB271
:1042F000B3F1FF3F03D17B69002283F844207B693F
:1043000093F845305BB2B3F1FF3F03D17B690022E4
:1043100083F8452001F05AFB7B699B6B002B06D18B
:104320007B6924337A68B968184600F03FFC7869E5
:10433000FFF728FF00BF1837BD4680BD80B58EB09F
:1043400004AFF860B9607A603B607B6B002B0BD1E7
:104350004FF0500383F31188BFF36F8FBFF34F8F7C
:104360003B6200BF00BFFDE7BB6B002B0BD14FF0E2
:10437000500383F31188BFF36F8FBFF34F8FFB613F
:1043800000BF00BFFDE75C233B613B695C2B0BD0AA
:104390004FF0500383F31188BFF36F8FBFF34F8F3C
:1043A000BB6100BF00BFFDE7BB6B002B1ED07B6B6A
:1043B000002B1BD0BB6B7B627B6A7A6B1A637B6AB8
:1043C000022283F85920002303937B6A029307F1AA
:1043D000140301933B6B00933B687A68B968F868F3
:1043E00000F050F8786A00F0D5F801E000237B6116
:1043F0007B6918462837BD4680BD80B58CB004AFB8
:10440000F860B9603B601346FB80FB889B00184650
:1044100001F0AEFB78617B69002B0ED05C2001F0CF
:10442000A7FBF861FB69002B03D0FB697A691A636B
:1044300005E0786901F064FC01E00023FB61FB69A1
:10444000002B17D0FB69002283F85920FA8800233B
:104450000393FB690293FB6A0193BB6A00933B6879
:10446000B968F86800F00EF8F86900F093F80123D5
:10447000BB6102E04FF0FF33BB61BB6918462037D8
:10448000BD4680BD80B588B000AFF860B9607A6085
:104490003B603B6B186B7B689B001A46A52101F0C3
:1044A00045FD3B6B1A6B7B6803F18043013B9B002E
:1044B0001344BB61BB6923F00703BB61BB6903F015
:1044C0000703002B0BD04FF0500383F31188BFF389
:1044D0006F8FBFF34F8F7B6100BF00BFFDE70023ED
:1044E000FB6112E0BA68FB69134419783A6BFB6907
:1044F000134434330A461A70BA68FB6913441B78B4
:10450000002B06D0FB690133FB61FB690F2BE9D956
:1045100000E000BF3B6B002283F84320BB6A372BCF
:1045200001D93723BB623B6BBA6ADA623B6BBA6A6A
:10453000DA643B6B00221A653B6B04331846FFF7C5
:10454000B6F83B6B18331846FFF7B1F83B6B3A6B84
:104550001A61BB6AC3F138023B6B9A613B6B3A6BE1
:104560005A623B6B00225A653B6B002283F858204D
:104570003A68F968B86901F00BF902463B6B1A60BA
:10458000FB6A002B02D0FB6A3A6B1A6000BF20372F
:10459000BD4680BD80B582B000AF786001F0E6F91D
:1045A0002D4B1B6801332C4A13602C4B1B68002BCE
:1045B00009D12A4A7B681360274B1B68012B10D155
:1045C00000F022FC0DE0264B1B68002B09D1234B89
:1045D0001B68DA6A7B68DB6A9A4202D81F4A7B68EA
:1045E0001360204B1B6801331E4A13601D4B1A6871
:1045F0007B685A647B68DA6A1B4B1B689A4203D952
:104600007B68DB6A184A13607B68DA6A13469B0092
:1046100013449B00154A1A447B680433194610461C
:10462000FFF751F801F0D2F90D4B1B68002B0ED0AB
:104630000A4B1B68DA6A7B68DB6A9A4207D20C4B2A
:104640004FF080521A60BFF34F8FBFF36F8F00BFE0
:104650000837BD4680BD00BF78120020A40D0020A1
:10466000841200209412002080120020A80D002047
:1046700004ED00E080B584B000AF78600023FB60FB
:104680007B68002B18D0144B1B68002B0BD04FF00D
:10469000500383F31188BFF36F8FBFF34F8FBB605D
:1046A00000BF00BFFDE700F083F80021786800F04C
:1046B000FBFC00F08BF8F860FB68002B07D1074B80
:1046C0004FF080521A60BFF34F8FBFF36F8F00BF60
:1046D0001037BD4680BD00BFA012002004ED00E0F1
:1046E00080B58AB004AF0023BB6000237B603A46EC
:1046F000391D07F108031846FEF788FF39687B6803
:10470000BA68029201930023009300230A462249CB
:104710002248FFF713FE0346214A1360204B1B6813
:10472000002B02D001237B6101E000237B617B69C8
:10473000012B02D100F00CFD78617B69012B16D1B1
:104740004FF0500383F31188BFF36F8FBFF34F8F88
:104750003B6100BF134B4FF0FF321A60124B012236
:104760001A60124B00221A6001F08EF80FE07B698C
:10477000B3F1FF3F0BD14FF0500383F31188BFF328
:104780006F8FBFF34F8FFB6000BF00BFFDE700BF1F
:104790001837BD4680BD00BF1C600008D94D000819
:1047A0009C12002098120020841200207C1200200D
:1047B00080B400AF044B1B680133034A136000BF91
:1047C000BD4680BC704700BFA012002080B584B0F9
:1047D00000AF0023FB600023BB60424B1B68002B33
:1047E0000BD14FF0500383F31188BFF36F8FBFF3EA
:1047F0004F8F3B6000BF00BFFDE701F0B7F8394BBA
:104800001B68013B374A1360364B1B68002B62D193
:10481000354B1B68002B5ED02FE0344BDB68DB6828
:10482000FB60FB6818331846FEF7A8FFFB680433EB
:104830001846FEF7A3FFFB68DA6A2D4B1B689A4205
:1048400003D9FB68DB6A2A4A1360FB68DA6A1346FD
:104850009B0013449B00274A1A44FB680433194603
:104860001046FEF730FFFB68DA6A234B1B68DB6AF1
:104870009A4202D3214B01221A601C4B1B68002B69
:10488000CBD1FB68002B01D000F05CFB1C4B1B68FC
:104890007B607B68002B10D000F044F80346002BAF
:1048A00002D0164B01221A607B68013B7B607B685B
:1048B000002BF1D1124B00221A60104B1B68002B09
:1048C00009D00123BB600F4B4FF080521A60BFF339
:1048D0004F8FBFF36F8F01F079F8BB681846103720
:1048E000BD4680BDA01200207812002038120020A2
:1048F00080120020A80D0020A40D00208C120020A2
:104900008812002004ED00E080B483B000AF044BB7
:104910001B687B607B6818460C37BD4680BC7047BF
:104920007C12002080B586B000AF00237B61524B23
:104930001B68002B40F08F80504B1B6801333B619C
:104940004E4A3B6913603B69002B21D14C4B1B68DD
:104950001B68002B0BD04FF0500383F31188BFF37B
:104960006F8FBFF34F8F3B6000BF00BFFDE7444B2D
:104970001B68FB60434B1B68414A1360414AFB685C
:104980001360414B1B6801333F4A136000F0DAFAB1
:104990003E4B1B683A699A424ED3394B1B681B68E1
:1049A000002B01D1012300E00023002B04D0374B62
:1049B0004FF0FF321A603FE0314B1B68DB68DB6869
:1049C000BB60BB685B687B603A697B689A4203D2D4
:1049D0002E4A7B6813602FE0BB6804331846FEF74D
:1049E000CDFEBB689B6A002B04D0BB681833184609
:1049F000FEF7C4FEBB68DA6A254B1B689A4203D9EE
:104A0000BB68DB6A224A1360BB68DA6A13469B0004
:104A100013449B001F4A1A44BB68043319461046CE
:104A2000FEF751FEBB68DA6A1B4B1B68DB6A9A42D1
:104A3000B3D301237B61B0E7174B1B68DA6A1549D2
:104A400013469B0013449B000B441B68012B07D9A2
:104A500001237B6104E0114B1B6801330F4A136093
:104A60000F4B1B68002B01D001237B617B6918462B
:104A70001837BD4680BD00BFA01200207C12002068
:104A800030120020341200209012002098120020D2
:104A900080120020A80D0020A40D00208812002004
:104AA0008C12002080B485B000AF284B1B68002B0F
:104AB00003D0274B01221A6042E0254B00221A60E6
:104AC000244B1B68FB6011E0FB68002B0BD14FF0FF
:104AD000500383F31188BFF36F8FBFF34F8F7B6059
:104AE00000BF00BFFDE7FB68013BFB601A49FA68A5
:104AF00013469B0013449B000B441B68002BE3D020
:104B0000FA6813469B0013449B00134A1344BB608E
:104B1000BB685B685A68BB685A60BB685A68BB6808
:104B200008339A4204D1BB685B685A68BB685A6014
:104B3000BB685B68DB68094A1360064AFB68136060
:104B400000BF1437BD4680BC704700BFA0120020D4
:104B50008C12002080120020A80D0020A40D00203F
:104B600080B584B000AF786039607B68002B0BD1D2
:104B70004FF0500383F31188BFF36F8FBFF34F8F54
:104B8000FB6000BF00BFFDE7074B1B6818331946E9
:104B90007868FEF7BBFD0121386800F085FA00BF98
:104BA0001037BD4680BD00BFA40D002080B586B083
:104BB00000AFF860B9607A60FB68002B0BD14FF052
:104BC000500383F31188BFF36F8FBFF34F8F7B6167
:104BD00000BF00BFFDE70A4B1B6818331946F86891
:104BE000FEF771FD7B68002B02D04FF0FF33BB60F6
:104BF0007968B86800F058FA00BF1837BD4680BD24
:104C0000A40D002080B586B000AF78607B68DB68BB
:104C1000DB683B613B69002B0BD14FF0500383F302
:104C20001188BFF36F8FBFF34F8FFB6000BF00BFD2
:104C3000FDE73B6918331846FEF7A0FD1D4B1B68C6
:104C4000002B1DD13B6904331846FEF797FD3B69E5
:104C5000DA6A194B1B689A4203D93B69DB6A164A28
:104C600013603B69DA6A13469B0013449B00134AA6
:104C70001A443B69043319461046FEF724FD05E04B
:104C80003B69183319460E48FEF71DFD3B69DA6A89
:104C90000C4B1B68DB6A9A4205D901237B610A4BE6
:104CA00001221A6001E000237B617B6918461837F6
:104CB000BD4680BDA012002080120020A80D00205B
:104CC00038120020A40D00208C12002080B483B084
:104CD00000AF7860064B1A687B681A60054B1A684B
:104CE0007B685A6000BF0C37BD4680BC704700BF70
:104CF000901200207C12002080B588B000AF786050
:104D000039607B68002B0BD14FF0500383F311887F
:104D1000BFF36F8FBFF34F8F3B6100BF00BFFDE755
:104D20003B68002B0BD14FF0500383F31188BFF386
:104D30006F8FBFF34F8FFB6000BF00BFFDE700F038
:104D400015FE1D4B1B68BB617B685B68BA69D31A93
:104D50007B613B681B68B3F1FF3F02D10023FB611D
:104D600023E07B681A68154B1B689A4207D07B6862
:104D70005B68BA699A4202D30123FB6115E03B6884
:104D80001B687A699A420BD23B681A687B69D21A0F
:104D90003B681A607868FFF799FF0023FB6104E025
:104DA0003B6800221A600123FB6100F00FFEFB69E3
:104DB00018462037BD4680BD7C120020901200208E
:104DC00080B400AF034B01221A6000BFBD4680BC17
:104DD000704700BF8C12002080B582B000AF7860B1
:104DE00000F052F8064B1B68012BF9D9054B4FF028
:104DF00080521A60BFF34F8FBFF36F8FF0E700BF91
:104E0000A80D002004ED00E080B582B000AF0023C3
:104E10007B600CE07A6813469B0013449B00124AA7
:104E200013441846FEF724FC7B6801337B607B68E3
:104E3000372BEFD90D48FEF71BFC0D48FEF718FC89
:104E40000C48FEF715FC0C48FEF712FC0B48FEF769
:104E50000FFC0B4B054A1A600A4B054A1A6000BF4B
:104E60000837BD4680BD00BFA80D002008120020F5
:104E70001C120020381200204C1200206412002066
:104E8000301200203412002080B582B000AF19E04B
:104E900000F06CFD104BDB68DB687B607B680433E3
:104EA0001846FEF76BFC0D4B1B68013B0B4A136069
:104EB0000B4B1B68013B0A4A136000F087FD7868C2
:104EC00000F010F8064B1B68002BE1D100BF00BFBB
:104ED0000837BD4680BD00BF4C120020781200206C
:104EE0006012002080B584B000AF78607B6893F8D2
:104EF0005930002B08D17B681B6B184600F000FF6F
:104F0000786800F0FDFE19E07B6893F85930012BBA
:104F100003D1786800F0F4FE10E07B6893F8593014
:104F2000022B0BD04FF0500383F31188BFF36F8F28
:104F3000BFF34F8FFB6000BF00BFFDE700BF10371E
:104F4000BD4680BD80B483B000AF0E4B1B681B68AC
:104F5000002B01D1012300E00023002B04D00A4BD9
:104F60004FF0FF321A6008E0064B1B68DB68DB6815
:104F70007B607B685B68044A136000BF0C37BD46EA
:104F800080BC7047301200209812002080B483B09B
:104F900000AF0B4B1B68002B02D101237B6008E0A4
:104FA000084B1B68002B02D102237B6001E0002329
:104FB0007B607B6818460C37BD4680BC704700BFDD
:104FC00084120020A012002080B586B000AF786067
:104FD0007B683B6100237B617B68002B58D02F4BA3
:104FE0001B683A699A420BD04FF0500383F3118843
:104FF000BFF36F8FBFF34F8FFB6000BF00BFFDE7B4
:105000003B691B6D002B0BD14FF0500383F31188CC
:10501000BFF36F8FBFF34F8FBB6000BF00BFFDE7D3
:105020003B691B6D5A1E3B691A653B69DA6A3B692D
:10503000DB6C9A422CD03B691B6D002B28D13B695D
:1050400004331846FEF79AFB3B69DA6C3B69DA6277
:105050003B69DB6AC3F138023B699A613B69DA6AF2
:105060000F4B1B689A4203D93B69DB6A0C4A1360F9
:105070003B69DA6A13469B0013449B00094A1A44B1
:105080003B69043319461046FEF71DFB01237B6183
:105090007B6918461837BD4680BD00BFA40D0020AF
:1050A00080120020A80D002080B584B000AF786089
:1050B0003960214B1B68FB60204B1B68043318468A
:1050C000FEF75CFB7B68B3F1FF3F0AD13B68002B26
:1050D00007D01A4B1B68043319461948FEF7F3FA38
:1050E00026E0FA687B681344BB60144B1B68BA68FF
:1050F0005A60BA68FB689A4209D2124B1A680F4B81
:105100001B68043319461046FEF700FB10E00E4BF7
:105110001A680A4B1B68043319461046FEF7F6FA64
:105120000A4B1B68BA689A4202D2084ABB681360ED
:1051300000BF1037BD4680BD7C120020A40D0020AA
:105140006412002034120020301200209812002037
:1051500080B58AB004AF00237B6100F0D9FA1D4B03
:105160001B68002B21D00023FB600023BB603A1D8D
:1051700007F1080107F10C031846FEF75FFA79689A
:10518000BB68FA68029201930223009300230A4647
:1051900011491248FFF7D2F80346114A1360104B29
:1051A0001B68002B01D001237B617B69002B0BD195
:1051B0004FF0500383F31188BFF36F8FBFF34F8F0E
:1051C0003B6100BF00BFFDE77B6918461837BD464D
:1051D00080BD00BFD41200202460000805530008E1
:1051E000D812002080B58AB000AFF860B9607A604C
:1051F0003B6000237B62FB68002B0BD14FF0500318
:1052000083F31188BFF36F8FBFF34F8F3B6200BFF3
:1052100000BFFDE7194B1B68002B2AD0BB683B6120
:105220007B687B61FB68BB61BB68052B18DCFFF703
:10523000ADFE0346022B09D1104B186807F110018F
:1052400000233A6BFEF70CFC786212E00B4B1868F7
:1052500007F1100100230022FEF702FC786208E04B
:10526000064B186807F1100100233A68FEF7FAFCB4
:1052700078627B6A18462837BD4680BDD41200206C
:1052800080B588B002AF786039601D4B1B68DB6861
:10529000DB687B617B6904331846FEF76FFA7B6934
:1052A000DB69012B23D17B699A697B68D1187B6804
:1052B0003A68786900F0CCF80346002B17D0002339
:1052C000009300237A6800217869FFF78BFF38612B
:1052D0003B69002B0BD14FF0500383F31188BFF3D0
:1052E0006F8FBFF34F8FFB6000BF00BFFDE77B698F
:1052F0005B6A7869984700BF1837BD4680BD00BF1C
:10530000CC12002080B584B000AF786007F10803AC
:10531000184600F059F8F860BB681946F86800F0C4
:1053200005F800F0D7F800BFF0E7000080B584B0C2
:1053300000AF78603960FFF73BFA07F108031846C1
:1053400000F066F8F860BB68002B30D13B68002B9A
:105350000AD17A68FB689A4206D8FFF737FAF968EB
:105360007868FFF78DFF24E03B68002B08D0134BD3
:105370001B681B68002B0CBF01230023DBB23B60C2
:105380000F4B18687A68FB68D31A3A681946FEF71B
:10539000A1FFFFF71BFA0346002B0AD1094B4FF080
:1053A00080521A60BFF34F8FBFF36F8F01E0FFF79A
:1053B0000DFA00BF1037BD4680BD00BFD0120020DF
:1053C000D412002004ED00E080B485B000AF786016
:1053D0000E4B1B681B68002B0CBF01230023DBB2A4
:1053E0001A467B681A607B681B68002B05D1074B47
:1053F0001B68DB681B68FB6001E00023FB60FB6847
:1054000018461437BD4680BC704700BFCC12002040
:1054100080B584B000AF7860FFF776FAF8600B4B88
:105420001B68FA689A4205D200F010F97B680122E5
:105430001A6002E07B6800221A60044AFB6813606D
:10544000FB6818461037BD4680BD00BFDC12002047
:1054500080B586B000AFF860B9607A603B60002329
:105460007B61FB68BA685A60FB68FA681A61BA68BF
:105470007B689A4212D87A683B68D21AFB689B69AB
:105480009A4202D301237B611BE0104B1A68FB6830
:10549000043319461046FEF739F912E07A683B6882
:1054A0009A4206D2BA683B689A4202D301237B61D2
:1054B00007E0074B1A68FB68043319461046FEF7ED
:1054C00025F97B6918461837BD4680BDD0120020EB
:1054D000CC12002080B58EB002AFA5E07B68002B17
:1054E00019DA3B1D0433FB62FB6A002B0BD14FF032
:1054F000500383F31188BFF36F8FBFF34F8FFB61AE
:1055000000BF00BFFDE7FB6A1B68FA6A5068FA6AD1
:105510009268114698477B68002BC0F28580FB6833
:10552000BB62BB6A5B69002B04D0BB6A04331846BC
:10553000FEF724F93B461846FFF76AFF78627B685E
:10554000092B6CD801A252F823F000BF7555000852
:1055500075550008755500081F560008D3550008FA
:105560000D56000875550008755500081F560008AF
:10557000D3550008BA68BB6A9B69D118BB687A6AC0
:10558000B86AFFF765FF0346002B4AD0BB6A5B6A27
:10559000B86A9847BB6ADB69012B42D1BA68BB6A1B
:1055A0009B691A440023009300230021B86AFFF787
:1055B00019FE38623B6A002B33D14FF0500383F35E
:1055C0001188BFF36F8FBFF34F8FBB6100BF00BF68
:1055D000FDE7BA68BB6A9A61BB6A9B69002B0BD175
:1055E0004FF0500383F31188BFF36F8FBFF34F8FDA
:1055F0007B6100BF00BFFDE7BB6A9A697B6AD11877
:105600007B6A7A6AB86AFFF723FF0DE0BB6A93F8FA
:105610002C30002B07D1B86A00F072FB03E000BF0A
:1056200002E000BF00E000BF074B1B68391D0022ED
:105630001846FEF7B3FB0346002B7FF44FAF00BFC5
:1056400000BF3037BD4680BDD412002080B588B081
:1056500002AF46E02C4B1B68DB681B683B612A4BA2
:105660001B68DB68DB68FB60FB6804331846FEF7E9
:1056700085F8FB685B6AF8689847FB68DB69012B73
:105680002FD1FB689B693A691344BB60BA683B69D8
:105690009A420ED9FB68BA685A60FB68FA681A61C8
:1056A000194B1A68FB68043319461046FEF72EF8AA
:1056B00017E00023009300233A690021F868FFF700
:1056C00091FD78607B68002B0BD14FF0500383F382
:1056D0001188BFF36F8FBFF34F8F3B6000BF00BFD8
:1056E000FDE7094B1B681B68002BB3D1064B1B68F9
:1056F0007B61064B1B68044A1360044A7B69136094
:1057000000BF1837BD4680BDCC120020D01200204B
:1057100080B582B002AF00F029F9154B1B68002B51
:1057200020D11448FDF7A4FF1348FDF7A1FF134B48
:10573000104A1A60124B104A1A6000230093114B52
:10574000114A10210A20FEF7ADF80346084A1360FB
:10575000074B1B68002B05D0054B1B680B491846EF
:10576000FEF790FD00F032F900BFBD4680BD00BFDE
:10577000D4120020A4120020B8120020CC12002065
:10578000D012002080130020E01200202C600008BE
:1057900080B485B000AFF860B9607A60FB68043B04
:1057A000FB60FB684FF080721A60FB68043BFB6093
:1057B000BB6823F00102FB681A60FB68043BFB60D6
:1057C000084AFB681A60FB68143BFB607A68FB6858
:1057D0001A60FB68203BFB60FB6818461437BD4627
:1057E00080BC7047E957000880B485B000AF002343
:1057F0007B60124B1B68B3F1FF3F0BD04FF050039F
:1058000083F31188BFF36F8FBFF34F8FFB6000BF2F
:1058100000BFFDE74FF0500383F31188BFF36F8F94
:10582000BFF34F8FBB6000BF00BF7B68002BFCD075
:1058300000BF00BF1437BD4680BC7047A4010020E4
:10584000074B19680868B0E8F00F80F30988BFF3C8
:105850006F8F4FF0000080F311884EF00D0E7047EF
:10586000A40D002000BF00BF06480068006880F358
:10587000088862B661B6BFF34F8FBFF36F8F00DF4A
:1058800000BF00BF08ED00E080B584B000AF324B30
:10589000FB60FB681B78DBB27B60FB68FF221A7041
:1058A000FB681B78DBB2FB70FB78DBB203F05003C4
:1058B000DAB22A4B1A702A4B07221A6009E0284BE9
:1058C0001B68013B264A1360FB78DBB25B00DBB24E
:1058D000FB70FB78DBB203F08003802BEFD0204B12
:1058E0001B68C3F10703042B0BD04FF0500383F365
:1058F0001188BFF36F8FBFF34F8FBB6000BF00BF36
:10590000FDE7174B1B681B02154A1360144B1B68FD
:1059100003F4E063124A13607B68DAB2FB681A7022
:10592000104B1B680F4A43F4700313600D4B1B6848
:105930000C4A43F07043136000F0B8F80A4B0022A1
:105940001A60FFF791FFFFF7ADF8FFF74DFF002357
:1059500018461037BD4680BD00E400E0D01300209B
:10596000D413002020ED00E0A401002080B483B017
:1059700000AF4FF0500383F31188BFF36F8FBFF375
:105980004F8F7B6000BF0F4B1B6801330D4A1360C4
:105990000C4B1B68012B10D10B4B1B68DBB2002B8F
:1059A0000BD04FF0500383F31188BFF36F8FBFF319
:1059B0004F8F3B6000BF00BFFDE700BF0C37BD4607
:1059C00080BC7047A401002004ED00E080B483B0E7
:1059D00000AF124B1B68002B0BD14FF0500383F329
:1059E0001188BFF36F8FBFF34F8F7B6000BF00BF85
:1059F000FDE70A4B1B68013B084A1360074B1B6815
:105A0000002B05D100233B603B6883F3118800BF66
:105A100000BF0C37BD4680BC704700BFA40100200A
:105A2000EFF30980BFF36F8F0D4B1A6820E9F00F79
:105A300010602DE908404FF0500080F31188FFF707
:105A400031F84FF0000080F31188BDE80840196874
:105A50000868B0E8F00F80F30988BFF36F8F7047D4
:105A6000A40D002000BF00BF80B582B000AF4FF092
:105A7000500383F31188BFF36F8FBFF34F8F7B60A9
:105A800000BFFEF74FFF0346002B03D0064B4FF03D
:105A900080521A6000233B603B6883F3118800BF8B
:105AA00000BF0837BD4680BD04ED00E080B400AF04
:105AB0000A4B00221A600A4B00221A60094B1B682D
:105AC000094AA2FB03239B09084A013B1360034BCD
:105AD00007221A6000BFBD4680BC704710E000E09E
